:020000040800F2
:10000000680B0020B5260008855B000871260008F3
:1000100000000000000000000000000000000000E0
:10002000000000000000000000000000A124000803
:1000300000000000000000003124000835420008E4
:100040001925000819250008192500081925000898
:100050001925000819250008192500081925000888
:100060001925000819250008192500081925000878
:100070001925000819250008192500081925000868
:100080001925000819250008192500081925000858
:100090001925000819250008192500081925000848
:1000A0001925000819250008192500081925000838
:0400B0001925000806
:1000B40002B4714649084900095C49008E4402BCF7
:1000C4007047C046002934D00123002210B488426E
:1000D4002CD301242407A14204D2814202D2090173
:1000E4001B01F8E7E400A14204D2814202D2490094
:1000F4005B00F8E7884201D3401A1A434C08A04237
:1001040002D3001B5C0822438C08A04202D3001BCC
:100114009C082243CC08A04202D3001BDC082243E3
:10012400002803D01B0901D00909E3E7100010BC23
:10013400704701B5002000F05FF802BD0029F8D037
:1001440003B5FFF7C1FF0EBC4243891A1847C046E6
:10015400002941D010B404004C40A44601230022DD
:10016400002900D54942002800D5404288422CD3BA
:1001740001242407A14204D2814202D209011B01B5
:10018400F8E7E400A14204D2814202D249005B00B4
:10019400F8E7884201D3401A1A434C08A04202D31C
:1001A400001B5C0822438C08A04202D3001B9C085D
:1001B4002243CC08A04202D3001BDC0822430028BF
:1001C40003D01B0901D00909E3E710006446002CA1
:1001D40000D5404210BC704701B5002000F00CF877
:1001E40002BDC0460029F7D003B5FFF7B3FF0EBC2C
:1001F4004243891A1847C0467047C04684461000D7
:1002040062468C461900634600E0C0461FB500F004
:1002140005FF002801D40021C8421FBD10B500F01D
:1002240045FE4042013010BD10B500F0F7FE002835
:1002340001DB002010BD012010BDC04610B500F048
:10024400EDFE002801DD002010BD012010BDC046D8
:1002540010B500F06DFE002801DC002010BD012067
:1002640010BDC04610B500F063FE002801DA00207E
:1002740010BD012010BDC046844608006146FFE75A
:100284001FB501F068FE002801D40021C8421FBD3B
:1002940010B501F0EBFD4042013010BD10B501F086
:1002A4005AFE002801DB002010BD012010BDC0460D
:1002B40010B501F050FE002801DD002010BD012022
:1002C40010BDC04610B501F0F8FD002801DC002087
:1002D40010BD012010BDC04610B501F0EEFD002890
:1002E40001DA002010BD012010BDC0461C210123ED
:1002F4001B04984201D3000C10391B0A984201D305
:10030400000A08391B09984201D30009043902A2E2
:10031400105C40187047C046040302020101010149
:100324000000000000000000414208401C2101239D
:100334001B04984201D3000C10391B0A984201D3C4
:10034400000A08391B09984201D30009043902A2A2
:10035400105C401A7047C0461B1C1D1D1E1E1E1E2D
:100364001F1F1F1F1F1F1F1F002B15D1002A13D172
:10037400002906DB01DC002806D00020C043410828
:1003840002E080210906002007B4024801A14018B8
:10039400029003BD65FEFFFF03B4684601B50298F1
:1003A40001F04CFD019B9E4602B00CBC7047C04658
:1003B400002B11D1002A0FD1002900D1002802D02E
:1003C4000021C943080007B4024802A14018029062
:1003D40003BDC04625FEFFFF03B4684601B502987D
:1003E40001F0BDFC019B9E4602B00CBC7047C046A8
:1003F400084A43081340C01A0200074B80081840FB
:100404001A40121813099B18044A0548134058430C
:10041400000E704755555555333333330F0F0F0FB7
:10042400010101014A02F8B543024400C50F500A14
:1004340084464800240E000E5F0AC90F9B099209E6
:10044400261A8D4200D09EE0002E42DD8021C90490
:1004540000281ED1002A0AD0661E012C05D19B1843
:1004640001340B4246D1013C01E0FF2C14D15A0760
:1004740004D00F221A40042A00D004335A0100D4B5
:100484002EE101340026FF2C19D09D4EDB081E40BE
:1004940015E0FF2CEBD00A431B2E01DD0133E6E708
:1004A4002020801B11008240F140501E82410A43EB
:1004B4009B185A01DBD501340026FF2C1AD1FF23E7
:1004C400E005DB057602760A18403043ED07284341
:1004D400F8BD002E2ED08026011BF604002C14D16A
:1004E400002B00D1F3E04C1E01290AD19B180224F1
:1004F4003342B8D0012283491A405B080B401343AE
:10050400B5E7FF2906D11300AEE0FF2800D1E0E0F3
:100514000C0033431B2C02DD531C0400A7E7190015
:100524002026E140341BA3405C1EA3410B4304007E
:100534009B18BEE7FE20611C01421ED1002C0DD188
:10054400002B00D1C7E0002A00D190E79B185A0184
:1005540000D48CE76C4A13400C0088E7002BD2D0FF
:10056400FF24002A00D182E78023DB039F4202D3C9
:100574009C4500D26746FB0076E00C00FF299ED024
:100584009B185B0873E7002E25DD00281CD1002A88
:1005940000D16CE7661E012C06D19B1A5A0100D4C7
:1005A40065E79B019E0975E0FF2C00D15FE70121FF
:1005B4001B2E07DC2020801B11008240F140501EBE
:1005C400824111435B1AE9E7FF2C00D14FE78021F8
:1005D400C9040A43EBE7002E25D0051B002C0DD1DE
:1005E400002B08D06E1E012D03D10D00D31A013447
:1005F400D4E7FF2D08D113002C0021E0FF286CD094
:1006040080242E00E404234301241B2E07DC202530
:10061400AD1B1C00AB40F4405D1EAB411C43131BDF
:100624000D000400BAE7FE26601C30422DD1002CD8
:1006340014D1002B06D125002600131E00D13EE75D
:100644000D0014E7002A00D111E79E1AD31A700195
:10065400F6D4331E00D00AE7350030E7002B05D16D
:10066400002A49D013000D00FF2400E7FF24002ACC
:1006740000D1FCE68023DB039F4200D27BE79C454C
:1006840000D378E767460D0075E79E1A700115D50B
:100694000D00D61A3000FFF729FE330005388340D9
:1006A400844210DC2022001B0130121A19009340EE
:1006B400C1405A1E934100240B43D8E6002EE9D1D1
:1006C40035003400FBE6104A241A1340CFE6130029
:1006D40042E7130021E71300C9E613000400AFE763
:1006E400DE08FF2C00D0EAE6002E00D1E7E68023E6
:1006F400DB03FF241E43E2E680261500F603F6E73B
:10070400FFFF7F1FFFFFFF7DFFFFFFFBF0B5C30F60
:1007140085B0440245000F1C640A2D0E0393029316
:100724000AD0FF2D3BD08023E400DB041C430023CC
:100734007F3D019500930EE0012301940093002C6A
:1007440009D02000FFF7D2FD431F9C4076235B4273
:100754001B1A019300957D027E006D0A360EFF0F71
:10076400002E23D0FF2E2ED08023ED00DB041D436A
:1007740033007F3B002201980399C31A0098794003
:100784008000104301380E2823D8FFF791FC4D99BF
:1007940073999299734D4D92736161615300022371
:1007A40001950093002CD6D00133C3E72B0001221E
:1007B400002DE0D02800FFF799FD431F9D407623CC
:1007C4005B421B1AD6E733000222002DD3D001323C
:1007D400D1E764016D01AC4228D31A200122641BC5
:1007E4000126270052006400002F01DBA54201D836
:1007F400641B324301380028F3D1601E8441144342
:1008040018007F30002838DD620704D00F22224010
:10081400042A00D00434220103D5803318002B4A63
:100824001440E508FE281DDD00250FE01B200022F2
:10083400013BD5E78023DB031C4203D01D4201D1D9
:100844002C00029780250299ED032543FF2009E03F
:100854000399009A022AE7D0032A2FD00025280002
:10086400012ACDD16D026D0AC0052843C90708438A
:1008740005B0F0BD2C003900ECE701220025121A66
:1008840028001B2AEEDC9E3325009C40D540631EC5
:100894009C4125436B0704D00F232B40042B00D02D
:1008A400043580232800DB0418401D420BD1ED08D9
:1008B400D8E780240023E4030293C3E70291C1E74D
:1008C40000252800CEE700250120CBE7FFFFFFF736
:1008D400F0B5C30F85B04702440002917F0A240E8D
:1008E40003930AD0FF2C71D080227F3C2600002382
:1008F400FF00D204174301930CE001233E1E019331
:1009040008D03800FFF7F2FC7626431F9F4076425A
:10091400361A0194029B5C025D00DB0F640A2D0E03
:1009240002935AD0FF2D64D080232800E400DB0416
:100934001C437F3800230299039A4A408119019885
:100944008C46850001311D430A2D00DD78E0022D1F
:1009540055DC013D012D63D9250CA4B226003B0CC6
:10096400B8B246435C4368436B4300191F00330C21
:100974001B189C4202D9802040023F181804B6B2CA
:100984008619B401601E84411B0CB60EDB19344376
:100994009B011C431B0168D5012360081C400443D0
:1009A40008007F30002862DD630704D00F23234052
:1009B400042B00D00434230103D5803108003E4BBE
:1009C4001C40E508FE2833DD00254CE00223260008
:1009D4000193002F9ED001338DE720000123002CCA
:1009E400A9D0FFF783FC431F9C4076235B42181A6F
:1009F400A0E728000223002C9DD001339BE70120AF
:100A0400A840A6250600ED002E4028421DD19025C1
:100A1400AD00284247D1B93DFF3D28429CD0029AFF
:100A2400022BD1D0032B42D000252800012BB7D1B3
:100A34006D026D0AC0052843D207104305B0F0BD0E
:100A4400039A0F2D04D00B2DE9D03C00019BE7E75E
:100A54008023DB031F4203D01C4201D12700029AEA
:100A64008025ED033D43FF20E2E7614698E701233B
:100A740000251B1A28001B2BDADC9E3125008C4034
:100A8400DD40631E9C4125436B0704D00F232B409C
:100A9400042B00D0043580232800DB0418401D42B9
:100AA40007D1ED08C4E780273200FF03D8E7270009
:100AB400D6E700250120BBE7FFFFFFF7F0B54602AC
:100AC400730A85B001930393DA004B024400C50F07
:100AD400580A02904800240E000EC90F9B09FF28F3
:100AE4001DD1FF277F42BC46A444002B0BD00F002E
:100AF4008D4200D0D8E06146002900D182E0002C6C
:100B040073D1040061E001274F40BD4200D0D3E01F
:100B14006146002976D0002CF3D0FF2416E001278B
:100B2400BC464F40211ABD4200D095E0002942DD69
:100B34008026F604002820D1002B1CD0611E6445B9
:100B440017D19B18022433422ED164465A0704D08D
:100B54000F221A40042A00D004335A0100D432E18F
:100B640001340026FF2C00D1E4E09C4EDB081E403B
:100B7400E0E0FF2C04D11300E8E7FF2CFBD0334363
:100B84001B2901DD531CE1E718002026C840711A17
:100B94008B40591E8B4103439B185A01D6D501340F
:100BA4000026FF2C00D1C5E001228D491A405B08C4
:100BB4000B401343CAE7002924D0011B002C03D0A7
:100BC4008024E40422430DE00C00002ABED0611E00
:100BD400012C05D19B1801345A01E5D4013CB5E739
:100BE400FF2CB3D01B2902DD01330400AEE714004F
:100BF4002026CC40711A8A40511E8A4122439B18F8
:100C04000400CAE7FE20611C01421ED1002C0AD157
:100C1400002A9BD0002BAED09B185A0196D5714A5E
:100C24000C00134092E7FF24002A8FD0002BA2D09F
:100C34008023019ADB039A4204D3029A9A4201D296
:100C44003D000392039BDB0067E70C000026FF29AD
:100C540070D0D3185B0879E7002935DD00281CD152
:100C6400002B88D0611E012C07D16446D31A5A0187
:100C740000D46BE79B019E0988E0FF2C00D17AE742
:100C840001201B2907DC18002026C840711A8B405C
:100C9400591E8B411843131AE9E7FF2C00D16AE768
:100CA4008020C0040343EBE76646002E36D0002CB8
:100CB40019D004000D0049E7614600292ED0002C0C
:100CC40014D004003D0041E7002927D0061B002C66
:100CD4001FD13D003400002A00D137E7661E012CE5
:100CE40006D19B1AC3E70D000400F4E73D00FBE7BF
:100CF400FF2C00D12AE701211B2E07DC2024A41B92
:100D04001100A240F140541EA241114304005B1A99
:100D1400ADE78021C9043D000A43ECE7FE20611CD5
:100D240001422ED1002C1DD1002A0ED1250026000F
:100D3400002BC7D1FF23E005DB0576021840760AB5
:100D44003043ED07284305B0F0BD002B00D112E776
:100D5400D61A710101D59B1AB4E7331E00D0F5E60B
:100D64002500E7E7002A07D13D00002B00D0D4E698
:100D740080261D00F6032BE0002B00D058E713005B
:100D8400CBE6D61A710115D53D009E1A3000FFF747
:100D9400ADFA330005388340844210DC2022001B66
:100DA4000130121A19009340C1405A1E9341002485
:100DB4000B43CBE6002EE9D135003400BAE7094AEB
:100DC400241A1340C2E6DE08FF2CB3D1002EB1D0A2
:100DD4008023DB03FF241E43ACE7C046FFFF7F1FD5
:100DE400FFFFFF7DFFFFFFFB41024300C20F490AE3
:100DF40000201B0E7E2B03DD9D2B02DD084BD0183B
:100E04007047802000040843952B05DD963B9840ED
:100E1400002AF5D04042F3E79621CB1AD840F7E7F1
:100E2400FFFFFF7F70B503000400051E0ED0C2173C
:100E340085185540C40F2800FFF758FA9E231B1A43
:100E4400962B0ADC08282CD0083885406A02D8057D
:100E5400520A1043E407204370BD992B1CDD052280
:100E64002900121AD14002001B3295402A00551E57
:100E7400AA4111430D002A000B4E3240690704D0E9
:100E84000F212940042900D00432510102D59F23A7
:100E940032401B1AD508D9E7421F0528EBD09540EC
:100EA400E9E79623D2E7C046FFFFFFFBF0B50D004C
:100EB40087B000920193040004900198EB0F460060
:100EC400C70F1A4803938446009B09030593019BAB
:100ED4006A001B030120090B520D1B0B760D6245A2
:100EE40003D066450DD107B0F0BD9642FBD1009A00
:100EF4000B4313432343F6D1039BD81B431E984152
:100F0400F1E70120B242EED19942ECD1049B059E57
:100F1400B342E8D1039BBB4206D0002AE3D121436C
:100F24004B1E99410800DEE70020DCE7FF070000C4
:100F3400F0B587B0009001911D00009B140004934C
:100F4400019B29031A03130B334A03939446019B11
:100F540068005F007B0D0293029A019B0594DB0FEE
:100F6400090B400DEE0F624512D1009A039F1743FF
:100F74004FD1029A904204D00120002B06D00238AF
:100F840004E02143081E44D1B342F5D107B0F0BDBB
:100F9400604511D121433CD1029A002A04D0B342C6
:100FA400EAD1181EF2D105E0009A03991143F6D153
:100FB400301EEBD101202DE0029A002A17D0002820
:100FC400DAD0B342D8D1029A8242D5DC029A824264
:100FD400E7DB039A8A42CFD8E3D1049A05998A427F
:100FE400CAD8049A059900208A42CFD2D9E7009F33
:100FF400039A1743002802D0002FD9D0CFE70C431F
:1010040004D0002FD4D0B342E3D0B5E7002FBDD035
:10101400B2E702204042B9E7FF070000F0B587B00D
:10102400009001911D00009B14000493019B680033
:101034001A03130B344A03939446019B05945F00EF
:101044007B0D0293019B029AD90F2B031B0B400DBE
:10105400EE0F624513D1009A039F174352D1029AAF
:10106400904204D00120002907D0023805E0022074
:10107400234302D11800B142F4D107B0F0BD60455A
:1010840013D102202343F8D1029B002B04D0B14298
:10109400E8D1081EF1D105E0009B039A1A43F6D16A
:1010A400301EEAD101204042E7E7029A002A17D015
:1010B4000028D7D0B142D5D1029A8242D2DC029A1A
:1010C4008242E6DB039A9A42CCD8E2D1049B059A89
:1010D4009342C7D8049B059A00209342CDD2D8E707
:1010E400009F039A1743002802D0002FD8D0CEE7E0
:1010F4001C4304D0002FD3D0B142E3D0B2E7002F79
:10110400BBD0AFE70220B8E7FF070000F0B58BB013
:10111400009201930D034B00CA0F06002D0B5B0DCB
:10112400059200D114E1CF4A934200D138E1ED0099
:10113400420F2A4380252D041543CB4AC4009B1833
:10114400039300230293019B00981E035A00DB0FB4
:10115400360B520D049300D131E1C24B9A4200D1B7
:1011640053E1430FF60033438026BF4936041E4340
:10117400C300501800220599049F794000910399F7
:1011840041180691013103910299880010430A28FD
:1011940000DD73E1022800DD46E10138012800D8B2
:1011A40055E1190C9BB202911900220CA4B25143CF
:1011B40020008C46029F029958435143674305918E
:1011C4006744010CC91904908C4505D9802040025C
:1011D4008446059F67440597080C84466846008A40
:1011E400090409180991310CB6B2049130002100A8
:1011F400049F50437C4371437A4324180F0C3C19D9
:10120400A04202D9802040021218200C8218240423
:1012140089B2079262180892089962468C46290C92
:10122400ADB22800029F58436F434B436244944637
:10123400029CFF18020CD2194C43934202D980231A
:101244005B02E418130C1B1902932B0080B21204E6
:1012540012180498734345434E434143A8191D0C87
:101264002D18AE4202D9802040020918059C604620
:10127400A446089C6044A042BF4180189042924119
:101284002E049BB2F618079B7F42F6185342049330
:10129400029BF4199C46A4446346049ABC42A441AC
:1012A4009B18079A64429642B641029A76423443A6
:1012B4002D0C64199445AD41049A6D4293429241B8
:1012C400524215436419099A6418410211434A1E93
:1012D4009141C00DDE0D640201435B0226430B43C2
:1012E400E40100D4DFE001215A080B401A43F3075C
:1012F400CE401343039A5D495218002A00DCD5E01E
:10130400590709D00F211940042905D0191D994204
:101314009B415B42F6180B00F10106D58021C90000
:101324008C46534A1640039A624452498A4200DD6D
:1013340009E17407DB081C43F60813053603009A19
:10134400360B3343D2071343200019000BB0F0BD12
:101354002C0004432BD0002D16D02800FEF7C6FF26
:10136400040002000B3C1D2330001B1B1100D8405D
:1013740008398D4003002B4335008D403E492C0035
:101384008A1A1D000392DCE6FEF7B0FF0400020097
:10139400153420321C2CE6DD330008388340EDE799
:1013A40004002C4307D0039304000323CAE625005A
:1013B40001230394C6E6039325000223C2E6009B9F
:1013C400334329D0002E14D03000FEF78FFF0100E4
:1013D40003000B391D221800521A00990838864060
:1013E400D1403143009E86402348C01A33000E008A
:1013F400C0E6FEF77BFF01000300153120331C29F2
:10140400E8DD009908388140EEE7009B334307D0BC
:10141400030010000322AEE61E0018000122AAE613
:1014240010001E000222A6E601218140A6200F0022
:10143400C0000740014227D190208000014277D1AB
:10144400B938FF38014200D1ABE604990091022A71
:1014540079D0032A75D0012A00D04BE70026340046
:1014640032006AE7FF07000001FCFFFFFF030000F2
:10147400FFFFFFFEFE0700000DFCFFFF0599009132
:101484000F2805D00B28E0D02E002300029ADEE7B7
:101494008022120315424FD016424DD13500049AD2
:1014A40000921C0048E0069A039223E70120801A68
:1014B4003828D3DC1F2827DC2649039A8C461C00D5
:1014C4006244310093409140C4401A002143531EAA
:1014D4009A410B00C64013435A0709D00F221A4001
:1014E400042A05D01A1D9A429B415B42F618130048
:1014F40080213000090408400E4227D17407DB081C
:1015040002001C43F60818E71F2149428A1A3100D9
:10151400D1400022202805D00F48039A8446624413
:101524009640320013435A1E934100260B43D3E7DF
:1015340080253C002D030097802636032E43074A5E
:10154400FBE63500ADE700263400F8E7002601226B
:101554003400F2E61E0400003E040000FF07000011
:10156400F0B585B000920193CB0F0D030293019B5C
:101574004C006D0A410F29435D001E036B0D9C4610
:10158400019B760ADD0F009B009A5B0F3343BE4E2E
:10159400640DC000D200B44523D11E001643039647
:1015A400039FBA4EA619002F0CD0029F0095AF429C
:1015B40000D0B5E1002E00D104E1002C00D0BAE245
:1015C4006446B8E001276F40029D0097BD4200D0F9
:1015D400AFE1002E00D1F5E0002CF1D00399080012
:1015E4002FE00126754000956546029F009E651B0D
:1015F400B74200D02EE1002D00DC76E06746002FD4
:1016040021D11F00174300D122E16F1E012D15D1F6
:10161400821882428041C9184042091801241000EE
:101624000B0200D496E00224994B42080B4001219E
:1016340001400A43D807104359088BE0924EB54243
:1016440022D1914C86E0904EB44200D182E0002633
:10165400B4460136382D1ADC80262F003604334375
:101664001F2F31DC20251E00ED1BAE40B4461600B2
:101674000095FE4065462E43009DFB40AA40551E42
:10168400AA4116439C4602E00126382FE8DD3618AD
:101694008642804161444042091830000B0259D50A
:1016A4000026794B0134B4469C42BDD1794B2405C4
:1016B4001C4063461B031B0B1C43029B3000DB07CF
:1016C4001C43210005B0F0BD3D001E00203DEE404E
:1016D4000025202F03D04035ED1BAB401D001543E2
:1016E4006B1E9D4100232E43CCE7002D6AD0654636
:1016F4002D1B002C1ED000240126382D12DC802442
:10170400240421431F2D4BDC20240F000600641BFE
:10171400A040A740EE4037430600E940701E8641D2
:101724000C003E43B01890429241E4185242A11872
:101734006446B3E72C000D00054329D0651E012C37
:1017440023D1801890429241C918524289180B0241
:1017540000D568E7430709D00F230340042B05D0C5
:10176400031D834280414042091818000B0200D433
:10177400E4E10026444B0134B4469C4296D0444BE9
:10178400C0080B405E070643CDE13F4EB44202D190
:1017940019001000DEE7382DB4DD00240126C1E76E
:1017A4002C000E00203CE64034000026202D03D0FF
:1017B4004036761BB1400E000643711E8E4126430F
:1017C4000024AFE7344E651C354233D10D00054388
:1017D400002C11D1002DDBD01D001543BAD0821886
:1017E40082428041C9184042091810000B02B1D549
:1017F400274B01341940ADE7002D00D19BE11C00BB
:101804001443002C00D11CE74C07C008204380245B
:10181400C9082403214208D0DD08254205D1290046
:101824005B07D0081843009B0293CB00410F194378
:10183400C00006E7144CA54200D196E1821882420A
:101844008041CB1840421B18D8075208104359084E
:101854002C007FE7002D76DD6646002E2ED11F007A
:101864001743F5D06F1E012D18D1821A9042804182
:10187400C91A4042091A012410000B0200D469E776
:10188400490206004D0A02E1FF07000001F8FFFFCC
:10189400FFFF7FFF0000F07FFE070000B74EB54258
:1018A40000D1CEE60126382F15DD861B6346B042F3
:1018B4008041C91A4042091A3000DEE7AF4EB442F3
:1018C40000D147E70026B4460136382DEDDC8026EA
:1018D4002F00360433431F2F11DC20251E00ED1B7F
:1018E400AE40B44616000095FE4065462E43009D6A
:1018F400FB40AA40551EAA4116439C46D5E73D002D
:101904001E00203DEE400025202F03D04035ED1B66
:10191400AB401D0015436B1E9D4100232E43ECE795
:10192400002E67D0002C25D019001000934C02958E
:1019340010E7002E5ED0002C1FD003998F4C0800B6
:10194400009B029306E7002D54D065462D1B002C06
:101954001FD1009C02942C000D00054300D117E711
:10196400651E012C0CD1101A82429241591A52421E
:10197400891A82E702956446EEE7009C0294FAE72E
:101984007E4EB44200D103E7382D09DD0021012643
:1019940014E0382D2BDC802424042143009C029481
:1019A4001F2D13DC20240F00641B0600A040A74059
:1019B400EE40441EA041E9403E430643901B824250
:1019C4009241591A52426446891A56E72C000E0075
:1019D400203CE6400024202D03D04034641BA14069
:1019E4000C000443611E8C4100212643E6E7009964
:1019F4000291CBE7624E651C354238D11D00154378
:101A0400AC460D000543002C25D1002D08D16146BC
:101A140026000294002900D148E6190010008FE73F
:101A24006546002D00D195E6861AB042BF41CD1A15
:101A34007F42ED1B2F0206D5101A82429241591A99
:101A44005242891A7CE733002B439C4600D18FE035
:101A5400290030007EE6002D07D1614600297AD0A6
:101A64001900009B10000293EBE56446C9E6861A50
:101A7400B042BF41CD1A7F42ED1B2F0228D5161A62
:101A8400B24292415B1A52429D1A009B0293002D6E
:101A940026D02800FEF72AFC0300083B2022310050
:101AA400D21A9D40D140294335009D409C423DDCE3
:101AB4001A1B0132202308009B1A2C009D409840D9
:101AC400D4406B1E9D41D14020432843002441E66D
:101AD40033002B439C46DAD11E001C000293E5E53B
:101AE4003000FEF703FC030018331F2BD6DD310052
:101AF400083881409C4212DC1B1B5A1C1F2AD9DD6A
:101B04000C001F3BDC402800202A03D040239B1AF2
:101B140099400800431E984100212043D6E7E41A67
:101B2400184B0B405E07DB089C46BFE5E41A154BD7
:101B3400280019400EE61900100082E54B07C00882
:101B440003439C460D4B6646C9089C4213D10E4381
:101B540004D1B446AAE502918021090380231B0322
:101B64000B436646054C9C46A0E50026034CF0E773
:101B7400260002949AE58C4698E5C046FF070000CB
:101B8400FE070000FFFF7FFF0B0070B5114E0C0332
:101B940049000200240B0020490DDD0FB14204DD91
:101BA4000D48814202DD0D4BE81870BD80204003D2
:101BB40020430B4C641A1F2C08DC0A4EE24089199E
:101BC40088401043002DF0D04042EEE7064B5B1AEC
:101BD400D840F7E7FE0300001D040000FFFFFF7F6D
:101BE40033040000EDFBFFFF1304000070B5030095
:101BF40002000600051E11D0C21785185540C40FF7
:101C04002800FEF773FB0D4A121A0A280FDC0B2377
:101C14002E001B1A1530DE40854023003603360B98
:101C240012053243DB071A432800110070BD0B383C
:101C3400854023002E000025F0E7C0461E04000066
:101C4400FE2270B54400240E4302611C5D0AC60FD7
:101C540011420DD0E0229200A4181B0B6D071B0348
:101C64001B0B2405F6071C4334432800210070BDD8
:101C7400002C18D12300002DF1D02800FEF736FBEC
:101C84000A280ADC0B232A001B1ADA40130002007C
:101C940015329540094C241AE1E703000B3B9D40A3
:101CA4002B002500F6E7002D06D01A0B80231B031A
:101CB4006D071343024CD2E72B00FBE789030000B6
:101CC400FF070000D0400B00D1409C46203AD3408F
:101CD40018435242634693401843704791400300AF
:101CE40090409C46203A9340194352426346D34065
:101CF4001943704710B5002903D1FEF7F7FA2030D5
:101D040002E00800FEF7F2FA10BDC046F7B5040C75
:101D14000D0091B20F0061438C460600019383B21B
:101D2400100C5F43444358433B0C60441B189942D6
:101D340002D9802149026418019955437143180C52
:101D440004191B04BFB24919D819091903B0F0BD0D
:101D540010B5002802D0FEF7E7FA013010BDF0B547
:101D640006000F0015001C0085B08B4263D801D11A
:101D7400824260D821002800FFF7BCFF39000090A0
:101D84003000FFF7B7FF009B21001B1A1A00280040
:101D94000393FFF7A3FF00900191B94245D801D105
:101DA400B04242D8009B019C01200021039AF61AFC
:101DB400A741FFF793FF04000D00039B002B2BD0DA
:101DC400019B009ADB0750081843019B5908039BA9
:101DD4009C46B9422CD801D1B04229D832003B00EC
:101DE400121A8B41012692185B410027B6185F41F5
:101DF40001235B429C446346002BEAD13000390046
:101E0400039AFFF75FFF039AA4197D4106000F00B0
:101E1400FFF764FF241A8D410A9B002B01D01E603A
:101E24005F602000290005B0F0BD00240025C4E750
:101E3400B6197F41DCE700240025EDE7F7B517006C
:101E44001E0004000D0000F0D6F802000B00009004
:101E5400019138003100FFF759FF241A8D41089B86
:101E6400009801991C605D6003B0F0BD70B54A0232
:101E7400440245004E00C30F640A01202D0E520A8D
:101E8400360EC90FFF2D02D0FF2E07D170BDFF2ED5
:101E9400FCD12243FAD14B401800F7E70120B542A8
:101EA400F4D19442F2D18B4205D0002DEED1200022
:101EB400431E9841EAE70020E8E730B54A024402AD
:101EC4004500C30F4800640A2D0E520A000EC90FC4
:101ED400FF2D0ED1002C38D1FF2804D00120002B77
:101EE40006D0023804E0002A2FD110008B42F5D12D
:101EF40030BDFF280BD1002A27D1002D01D1002CA1
:101F04001FD08B42EAD1002B1DD01800F0E7002D22
:101F14000ED00028E2D08B42E0D18542DEDCF2DB39
:101F24009442DBD800209442E2D28342EDD10AE00D
:101F34000028E4D1002A02D1002CD9D0CEE7002C0D
:101F440006D1081ED4D1012000E002204042CFE790
:101F54008B42E5D0C2E730B54A0244024500C30FC4
:101F64004800640A2D0E520A000EC90FFF2D0FD12E
:101F7400002C3BD1FF2804D00120002B07D00238CD
:101F840005E00220002A02D110008B42F4D130BDBA
:101F9400FF280CD1FD38002AF9D1002D01D1002CE5
:101FA4001FD08B42E8D1002B1DD01800EFE7002D85
:101FB4000ED00028E0D08B42DED18542DCDCF2DB9F
:101FC4009442D9D800209442E1D28342EDD10AE070
:101FD4000028E4D1002A02D1002CD8D0CCE7002C70
:101FE40006D1081ED3D101204042D0E70220CEE71B
:101FF4008B42E5D0C0E7F0B504000D0010001900D5
:1020040085B0002D11DB002B00DA82E026002F00C2
:1020140014001D00BD4204D800D080E0B44200D8B2
:102024007DE00020002105B0F0BD00236242AB41F9
:10203400002968DB16001F0004000D00BD4278D89B
:1020440001D1B44275D801235B42290020000393D7
:10205400FFF750FE390002903000FFF74BFE029B61
:1020640029001B1A1A0020000293FFF737FE040010
:102074000D00B94255D801D1B04252D801200021F7
:10208400029AFFF72BFE361BAF4100900191029B91
:10209400002B2CD0EB0760081843029B69089C4670
:1020A40001240025B94241D801D1B0423ED83200C2
:1020B4003B00121A8B4192185B4112196B411600B6
:1020C4001F0001235B429C446346002BEAD1009C21
:1020D400019D029A30003900FFF7F4FD029AFFF7E0
:1020E400FDFDA4197D41241A8D41009401950098A9
:1020F4000199039B002B00D195E703000C000021FC
:102104005842A1418FE716001F00002544428D412B
:1021140080E726002F00002544428D418EE70023EE
:1021240093E70022002300920193B0E7B6197F41A0
:10213400C7E700200021E0E702780B78002A03D0EB
:10214400013001319A42F7D0D01A704703000A785F
:1021540001311A700133002AF9D170470023C25C9F
:102164000133002AFBD1581E70470000F7B5002147
:10217400124C134D80222000296001267642F71765
:1021840004F06AFB694632003B000E48063102F057
:102194003BFB002805D16A462B68D288E254013300
:1021A4002B602000FFF7DAFF043821180648FFF7F8
:1021B400C3FF0028E6D12000FEBDC04698050020DC
:1021C400E0020020B40100207C6F000870B50D000F
:1021D400054C06492000FFF7B9FF2100280000F054
:1021E4002FF8FFF7C3FF70BD98040020816F00082B
:1021F40007B583681B68002B18D06A46911D984761
:10220400011E0CD16946002200230A48063102F05F
:10221400ADFA002802D0084803F02DFC07BD0300E6
:102224000B33FBD0054803F026FCF7E7582149425D
:10223400F8E7C046B4010020936F0008BA6F0008A5
:10224400F8B5040008000D00FFF788FF2A00070016
:102254002168074803F00FFC0026BE4200DBF8BDEE
:10226400A95DA36820005B6898470136F5E7C0467E
:10227400CF6F000810B5144C200004F06DF900284D
:1022840003D1124803F0F7FB10BDA368002B06D05E
:102294009B6C002B03D0002220000D499847A368B3
:1022A4009B6A002B01D02000984721000948FFF7C2
:1022B4008DFF094B0100180003F0DDFB00210748E6
:1022C40002F09EFEF1E7C046D4690008E86F0008FA
:1022D400F5210008FF6F000804700008204E00007C
:1022E40010B5024B1B68984710BDC046A8000020DB
:1022F400014B18607047C046A800002030B585B077
:1023040004000D0010220021684604F0A5FA6A4674
:1023140002239370044B2A0021006846019303F0C2
:102324001BF905B030BDC046E5220008F7B504002E
:102334000D001E00019202F07BFE030004F0A0FADF
:10234400054F32003B5001992800A04704F098FA49
:10235400385800F0C1F9C04608000000024B034A97
:1023640000201A607047C0467801002000127A00ED
:10237400014910220A60704710ED00E0BFF34F8F4F
:1023840030BF62B6BFF36F8F7047C04643B20006DA
:1023940005D41F221A4001239340014A1360704759
:1023A40000E100E030B5FF2503220B00290040B214
:1023B4000240D20091409B012B40C9439340002826
:1023C4000ADBC0240A4A800880008018A40002594D
:1023D4000A401343035130BD0F2210400838054A08
:1023E400800880008018C26911401943C161F2E776
:1023F40000E100E000ED00E030BFFDE7084A0949D4
:10240400936809689866D966802307495B0548681C
:1024140003434B6062B6BFF36F8F9368D86E704707
:10242400680400203C6F000800ED00E015498A684C
:1024340015481044EFF3098CF0C043464C4655460A
:102444005E466746F8C072B6104F114E4A698A60FC
:102454003E60104C141920680F4C2060906E0023CD
:102464009366002800D162B6074C10191030F8C8E2
:102474009846A146AA46B346BC462438F0C88CF315
:1024840009887047680400203000000004ED00E073
:102494000000000864000000E402002004207146EB
:1024A400014202D0EFF3098001D1EFF30880816982
:1024B400023909780229FFD001B503F055FB01BDAB
:1024C40010B5203A1360029B01245360039B064914
:1024D4009360049BA143D36080235B04D3610023F6
:1024E40091610265836610BD31230008074B986033
:1024F400074B406E1860101C81F30988002162B6F6
:10250400BFF36F8F00220023FFF710FF6804002041
:10251400E402002001B5EFF305800549401AC0002C
:102524000449014409C9984709BC9E460249084721
:1025340010000000886A0008A9250008F0B5144BB3
:10254400144C85B007001819039101382100019338
:10255400FDF7B8FD104E114D4443701929000138A0
:10256400FDF7B0FD45432B190293029A039B0C49D6
:102574009D1A2800019A04F066F9281932000021F6
:1025840004F06AF90298083D08307D6605B0F0BD94
:10259400000000000100000004000000040000002E
:1025A400C86B0008044B99685869884202D00349F3
:1025B400034A0A60704700006804002004ED00E04C
:1025C4000000001070B5224B0C005B6888B0DB057E
:1025D400DB0D62B6BFF36F8F0025160E2900FF2EA8
:1025E40009D1F33E1640082E05D00100013512072B
:1025F40001D5210000250024032B14D18B69154A31
:10260400934202D3144A934206D3144A00249342B9
:1026140009D3134A934206D2023B1A88114B002471
:102624009A4200D10C682022684604F00CF9079BFA
:10263400002D0AD0DA0502D10B4A134307936946E9
:10264400200003F08DFA08B070BD5B0A5B02F5E769
:1026540000ED00E0B40000089068000800000020CD
:102664000000002002DF0000FF010000EFF30880FB
:10267400EFF3098101B57246FFF7A4FF01BDC0461F
:10268400F0B5C02400220326FF25A40010002F006B
:102694003040C0008740054993089B005B181959D6
:1026A4000132B94319511D2AF0D1F0BD00E100E017
:1026B40072B607480749401880F30988EFF314807D
:1026C4000221084380F31488BFF36F8F03F05EFA8E
:1026D400200600200002000010B50A4B9B688342CC
:1026E4000DD1EFF30583002B09D08022064B520550
:1026F40059680A435A605A6A04490A405A6202F005
:102704009DFC10BD6804002000ED00E0FF7FFFFF8A
:1027140010B5024B1B689847002010BDE80200204A
:10272400034B044A1860022391780B43937070475B
:10273400E8020020AC000020072310B50449054A34
:1027440099430548521A03F0CDF9002010BDC04644
:102754007B0C002000200020680C002070B50500D0
:1027640000240126287800191F280FDC3300834039
:1027740009494A691A40934208D14B61074BC10089
:10278400CA58002A02D05B185968904701346B7804
:10279400E4B2A342E6D270BD00040140EC02002082
:1027A4000022052010B50C4C110020706070FFF75A
:1027B400F9FD002206201100A070E070FFF7F2FD81
:1027C4000C220721054804F047F8002207201100D5
:1027D400FFF7E8FD002010BD8401002088010020DF
:1027E40010B5064B020018560123934004490C68A7
:1027F40023430B60FFF7CAFD10BDC04684010020CF
:10280400000401401F2805DC0122824002490B68B4
:1028140093430B607047C0460004014010B50400A8
:10282400080003290CD80123104AFDF741FC020AD1
:102834000E16A340916899439160D1689943D16081
:1028440010BDA34091681943F6E7A340D16819432A
:10285400D160916899439160F2E7A340916819436C
:102864009160D1680B43D360EAE7C046000401409D
:1028740030B5094BC000C4588C4203D11D186D6893
:10288400954204D0002C04D119501B185A60002022
:1028940030BD10204042FBE7EC0200200022034B35
:1028A400C000C2501B185A607047C046EC0200209A
:1028B400836810B5DB0715D5042483680A492342CD
:1028C40007D0102382680A4013438360836823423D
:1028D400FCD1022382680A40134383600123826887
:1028E4001A42FCD110BDC046E8FFFF7FF7B503696B
:1028F400456801930B79DB06DB0E132B14D84E8845
:10290400002E14D0204B9E4232D0204A2F000023A8
:102914009446183764465A00BA5A224392B29642F1
:1029240006D00133082BF5D1162040421FE03300B6
:102934002822AA56002A06D00022019CA634A256B8
:10294400551C17D123700A799206EDD40A78082A07
:10295400EAD14A78042AE7D141680A002832127879
:1029640052B2012A09D002239A43DDD10020FEBDD0
:102974000723DDE79A42E6D0D6E7072009684A69CB
:10298400824313434B61F1E7FF3F000000C0FFFFA8
:102994000368054A9968114018320A439A609A6894
:1029A400002AFCDB7047C046E8FFFF7F02000300FB
:1029B4009432126898331A60903003685B6819681F
:1029C400034B8A681A40042313438B607047C04644
:1029D400E8FFFF7FF8B50125836804002B4201D08E
:1029E4000020F8BD0A26056083680B4F3B402B434B
:1029F400836023682B42F3D1A3682B4203D1A368DD
:102A04003B402B43A3606420013E01F019FD002EDE
:102A1400EFD174204042E4E7E8FFFF7FF0B503699B
:102A24008BB0403304000F00079301225242D317A6
:102A3400079802F011F8636826691B68BA68039363
:102A4400330094331A607D68DD602800FDF7D0FC04
:102A540033000022A43318705A70854B013D9D4207
:102A64000AD8012808DC61682C200D00303508568E
:102A74000495824203DB18D11624644280E0049D4D
:102A84009300EB583D7CAC46DD0CAC4500D07DE0BA
:102A940007205A0B024004921A0C0240DD040592EE
:102AA400DAB2ED0EFF2A00D072E03300A0331B68C7
:102AB4000493049B002B00D085E03300A4331B78DF
:102AC4003A685B00002A02D0928901325343FA68C3
:102AD4009A4200D2C7E07B7C002B00D0C5E0BB7CCF
:102AE400002B05D00398FFF7E3FE6068FFF750FF63
:102AF4000398FFF76FFF1023039A136004235268AF
:102B04001343039A536033003A00643313CA13C364
:102B1400002403CA03C334663B68A34200D19EE089
:102B24003200783223CB23C21B6835001360330094
:102B3400783373661C82B36F0835A34200D18EE0EC
:102B44002100300003F06BFE210063220023B06FEC
:102B54008018594164220023FDF72AFC00220090CA
:102B640000232800019102F08FFC30000122524220
:102B7400D317503001F070FF002800D03066346E57
:102B8400079801F047FF20000BB0F0BD013270E759
:102B94000868DBB20693C3181B68049AEB40134021
:102BA400059A9A4200D180E7FFF782FE0499636890
:102BB400A9401A68069BD21813688B430599A9404B
:102BC4000B43136071E70498FFF7C2F80138C3B2EE
:102BD40005930123059A6568934006939306069A24
:102BE4001A432B68099208932B0029331B78059A02
:102BF4005BB29A4212D10898FFF75AFEC0201D4AD0
:102C040000041368116803401B4801400B438021F2
:102C140009040B4313600A2003F09FFD2A23059A3D
:102C2400EB569A4212D10898FFF742FEC020114A8F
:102C340000041368116803400F4801400B438021CE
:102C4400C9030B4313600A2003F087FD099B039A11
:102C54005B035B0B9362049B069A934328E7300063
:102C6400FFF7A4FE81E70C2407E7862405E7C046A6
:102C7400FEFF0F0008270140FFFF3FFFF7B504697F
:102C8400436825001B6894351A6C2B68991C2960CD
:102C94001A8022002100A5321378A4310133DBB25B
:102CA4001370097899422BD100231370636E002BA3
:102CB4002ED02600E36F88363288002B06D0210000
:102CC4006431984701280AD002281AD0220084329D
:102CD400338812889A4214D90133338003E02300E5
:102CE40098331B682B60A36F002B03D12000FFF7E0
:102CF4005DFE05E00121200003F084FD0128F5DCE0
:102D0400F7BDA36F002B03D02000083003F054FD5F
:102D1400230090331B685F681B693A68A0331D6801
:102D24000192002D07D10198FFF754FE2000503086
:102D340001F070FEE4E72800FFF70AF83B002933AE
:102D44001B780138C6B25BB2B3420CD10198FFF7CD
:102D5400AFFD80200F4AC0031368116803400E487A
:102D640001400B4313603B002A331B785BB29E4245
:102D74000CD10198FFF79CFD8020064A00041368DB
:102D840011680340044801400B4313600123B3401E
:102D94009D43C6E708270140FFFF3FFFF0B54568A4
:102DA40087B02B68040007690193294B180000932E
:102DB40003F0D2FB002847D03B00FF2290331C6075
:102DC4009A75666800983368B1680293009B9B68A3
:102DD40003931B689847002807D1029B32691B693B
:102DE4009B009B081343029A13610021686905AA9A
:102DF40003F09AF8002825DB059B0022197918684E
:102E040000F0E4FC00281DDB0198FFF751FD606829
:102E1400FFF7BEFD63689968039BDB68002B02D053
:102E24000B4805AA98470198FFF7D4FD002809DB51
:102E34006B689847BB6C002B03D13800403001F01D
:102E4400E9FD002007B0F0BD13204042FAE7C04678
:102E5400486900080B681A00143A082A07D80020A9
:102E6400044A49689B181A680A431A607047862006
:102E74004042FBE7001002400B681A00143A082A8B
:102E840007D80020044A49689B181A688A431A60C4
:102E9400704786204042FBE7001002400B681A008E
:102EA400143A082A08D8084A48689B181B689843AB
:102EB400434258410130704702208342FBD0063B15
:102EC4008342F8D90138F6E70010024010B5164BDA
:102ED400086814001B68072812D008280AD800289C
:102EE4000ED0013807280BD8FDF7E2F81A0D1A0A9C
:102EF4000A0F0A12182808D01C2806D0142804D057
:102F04008620404203E080231B020020236010BD82
:102F140000F0E2F8002805D000F0DEF80300F4E742
:102F24000023F2E70520ECE77801002070B500F0FB
:102F3400D7F801F043FA404C404A6368404E1B0600
:102F44001B0FD35CD8400500B04202D83D4801F0C5
:102F54005BFA80232268DB02134323608023226808
:102F64005B021343236080239B0222681A42FCD035
:102F74008021354B49001A680A431A601A680A42CC
:102F8400FCD01822216A9143103A0A43226201229A
:102F9400216A0A4302212262226A0A42FCD01A6888
:102FA4002A4802401A600C2263681340082B16D189
:102FB40023680B4207D101232268134323600223B1
:102FC40022681A42FCD003226368934363600C2393
:102FD40062681A42FCD1F0226368934363602368F9
:102FE4001B4A1340236000F065F8802322685B04C9
:102FF4001343236080239B0422681A42FCD0F022EE
:10300400636893436360032362689A43013B1343F9
:103014000C22636063681340082BFBD1B54202D9CC
:10302400084801F0F1F90B4B064A00201A60636866
:10303400094A1340636070BD0010024030710008FB
:10304400FF6BDC02006CDC0200700040FFFEFFFF3F
:10305400FFFFFFFE78010020FFF8FFFFF0B50B68CB
:10306400022B02D0063B022B1FD84B68FF2B1AD031
:10307400FF221C0007261F270D4814402418580B54
:103084001B0A3B40304098402568854325604968C9
:1030940007480A400B0C090A334039408B40121888
:1030A4001068034313600020F0BD86204042FBE714
:1030B40000100240064B074A596811408822520307
:1030C4000A430F215A60DA6A8A43DA627047C046BB
:1030D40000100240FFFFC2FF00487047006CDC0292
:1030E40080210A4B4905DA6982B00A43DA61DA6958
:1030F4000A4001210192019A9A690A439A619B69E3
:103104000B400093009B02B07047C0460010024081
:1031140010B5084803F020FA002808D0064C200017
:10312400FFF7FEFA2000FFF7E3F8002010BD13209C
:103134004042FBE7C06900084131000870B5040053
:10314400074D0A2804D1AB680D2128005B68984715
:10315400AB6828005B68E1B29847200070BDC046A8
:10316400C069000870B5036904005860094D28005F
:1031740003F0F2F9002809D06168AB6828001B68E5
:103184000C319847002800DD002070BD1320404218
:10319400FBE7C04648690008F8B51D0080230C0011
:1031A400466811009B03026999421BD1A210284969
:1031B40003230232920052580F2123409B0099406E
:1031C4000A40DA401300B2689A4209D12000FFF79E
:1031D40019FB2000FFF762FB00212000FFF71EFB14
:1031E4000020F8BD8023DB0399422CD0200019492C
:1031F400FFF73EFB002829D121000F2703300140AF
:103204008900B6688F408E40114AA3109B009B181A
:103214009A680121BA4332439A608023DB049D42B9
:103224000AD0C0230100DB049D4205D0FE231B0607
:10323400ED186B425D4169002000FFF7EFFA2000B2
:10324400FFF7CEFACCE786204042CAE71020FBE71E
:1032540000000140935D0008F0B506694068254D03
:10326400C0684468E40106D542684B682A401B04E0
:1032740013434360F0BD346A1F4FE4072FD5802405
:10328400466824013E40344344604468A40AA402CE
:10329400234343600B7A9B0727D4002A25D0137855
:1032A4005B0722D4802342685B0413434360436872
:1032B400124A134043604368114A1340059A13436A
:1032C400436042684B682A401B0413434360012354
:1032D400026813430360802342689B01C8E7446883
:1032E4005B003C4044604468D0E74368054A1340AF
:1032F400DCE7C046FFFF00FFFFF7FFFFFFFFFFFD16
:10330400FFFBFFFFFFFFFFFE802210B54368920022
:10331400DB6804699969114207D0D9690A43DA6103
:103324000123A36202F08EFD10BD80229969520030
:1033340011422DD1A26B002A11D09A69920702D5AD
:10334400E26B12789A629A69520702D5E26B596A63
:103354001170E26B0132E263A26B013AA2631022A4
:10336400996911421AD199699218114221D19A6925
:10337400520602D49A691206D6D5626B127A920763
:1033840011D4406802F044FD200001F043FBCBE778
:10339400D9690A43DA6101232363C3E7D9690A437C
:1033A400DA610122E26280225968D2010A435A603A
:1033B400BAE7D9690A43DA615A6802490A405A608D
:1033C400B0E7C046FFFFFFFEF0B5446889B0E3688C
:1033D40005690693E3690020019308230A279C46A4
:1033E4000791019B834246D12B6A1B075B0F012B7C
:1033F40000D16EE0022B00D079E03E4B029396237D
:103404009B000493643B03937823FF3302240593C6
:10341400611E0798FCF756FE01003748FCF752FE80
:10342400010006000498FCF74DFE431E0193FF2B98
:1034340059D831000298FCF745FE471EFF2F52D899
:1034440031000598FCF73EFE05000F284BD83100EB
:103454000398FCF737FE01380F2844D8023C2D04AA
:10346400019B24073D432C4300051B0204431C43DA
:10347400069B1C611EE00C234343A1691F4EC9181F
:103484004A680623B24209D017D81D4E043BB24203
:1034940004D01C4BD3185A4253419B002A6A534010
:1034A4001B075B0F13D10B68079A93420FD18B68EC
:1034B400069A1361002009B0F0BD134E6346B24270
:1034C400ECD0124E3B00B242E8D00023E6E70130D4
:1034D40087E70F4B0293FA231B0104930D4B0393CD
:1034E400FA235B0092E70134112C00D090E71620F8
:1034F4004042E0E71405000000CA9A3B40420F0036
:10350400A086010080E5F9FF40E13300404B4C0008
:103514005C120000E2040000F0B58DB00993DBB248
:1035240003930623079112A9050001C9089209888B
:1035340006900491039904A8994319331B18197030
:103544000292089807A9039B069AFF2807D9FF232C
:1035540002224B600B7A04A893431D321218686848
:103564000126C76848682C69844607980B72059041
:1035740001201E40034232D16346A363059B60626F
:10358400E3636163049B2800E66226630096FFF709
:1035940063FE686802F02AFC02233A6813433B6026
:1035A40000232000344A01F057FA002809D02800EB
:1035B40002F048FC01225242D317200001F04CFAD9
:1035C4000126A26AE16A236B00293DD1002B35D183
:1035D400002A31D1002E3FD00520404249E0634605
:1035E400A363059B0026E3638023DB00616328005B
:1035F4006662A6622663E6620093049BFFF72CFED4
:10360400686802F0F3FB04233A6813433B60002329
:103614002000194A01F020FAB04209D0280002F033
:1036240011FC01225242D317200001F015FA013691
:10363400236BA26AE16AC7E7A362CDE7002A00D040
:10364400A16200232363C7E700218A4200D0A1625C
:10365400E162002BF5D1BFE7089A029B9B1A029303
:10366400079B9B180793029B0893002B00D068E7E5
:1036740018000DB0F0BDC046881300000023F7B554
:1036840005004268046917480F00D6685168019321
:1036940092688368DB68012A00D90831002B03D1C2
:1036A40005256D422800FEBD01AA98470028F7DBD6
:1036B4002762103401225242D317200001F0CCF9C2
:1036C400012233682800934333603368064A134069
:1036D40033600199FFF778FE0500200001F09AF9A4
:1036E400E0E7C04648690008FFFFCFFFF7B50400D4
:1036F40046680569012200215242280002F061FF58
:10370400200033689847012228001100103002F08D
:1037140058FF284D280002F01FFF002848D0676892
:103724000021786901AA02F0FFFB00280CDB019B51
:1037340000221979186800F049F8002804DBAB6806
:1037440028001B6879689847B368012B21D833692E
:10375400194906228B4209D011D81849043A8B42E0
:1037640004D0174A9B185A4253419A001021200052
:103774001143FFF783FF002800DD0020FEBD11493F
:1037840008228B42F2D0104902328B42EED0002242
:10379400ECE7AB6871689B690831002B02D1052006
:1037A4004042EBE70022280098470028CFDAF6E7EA
:1037B4001320F5E74869000840420F00A086010085
:1037C40080E5F9FF40E13300404B4C00F7B50400BD
:1037D4000025C90043180193019B9C4201D100209C
:1037E40034E01F27102223681F40134216D12025DE
:1037F40062681543FF215A0A12010A405B09F03935
:103804000B40134300931109A02A20D8114B8900BF
:10381400CE58002E0AD11320404217E0102F03D0B7
:10382400112FE7D16568E5E73025E3E7300002F0C2
:1038340093FE0028EFD00F2300992A00194030008E
:103844003B0002F0BEFA08340028C5DAFEBD16209B
:10385400E2E7C0468C6D000870B5140005690E29B6
:1038640011D0102924D00D2931D1686A5731FCF7C1
:103874006FFC20606421686AFCF7B4FC154B594363
:103884000020616070BDFA21A86A8900000AFCF773
:1038940019FCFA212060AD6A8900280AFCF74EFC65
:1038A400FA23EDB29B0059436B431B0AC918E7E79F
:1038B4002B0034331B78602B09D1EB6A06499B0A31
:1038C4001360EB6A9B059B0D5943890AD8E7862050
:1038D4004042D7E71027000040420F00F0B58FB0F8
:1038E4000400076902F074FB002800DAE9E03B00F9
:1038F40034331A780823602A00D0023BF721606829
:103904000CAA02F060FB002800DADAE00CAB1B78AA
:103914000CAA07930CAB5B78398808930CAB9B78A3
:1039240009930CABDB7812791B03120113430CAA25
:10393400527912091A431B095B1A5B434900D210DE
:10394400521A0220395E1B134A430420395ED212F4
:103954004B439B13D31802933B630523029A5343AF
:1039640080331B127B621300754A9C18E3172200F4
:10397400190020000B93FEF7C9F906910590102257
:10398400BB5E00930E22BB5E03930C22BB5E22003F
:103994000A930823F85EE317C117FEF7B7F9030D7E
:1039A4000E031E4305030A23F85E059A069BC117FE
:1039B400FEF7ACF90B06020A1A430B1280215219C6
:1039C40073410020090280185941FA880023FEF748
:1039D4009DF94B101A00CE1732430493131E69D07D
:1039E400009B0098059AD917069BFEF78FF9039B55
:1039F4002200009001910398D9170B9BFEF786F9DA
:103A0400C40B4B0423434204009C019DA4185D4154
:103A1400089B009401951A01099B1B091A43079BF3
:103A24001B031A4380235B039B1ADA1794466446EC
:103A34005A08E107114300220A9CD807E300009CBE
:103A4400019D12196B41801A994100233D4AFEF7EA
:103A54005DF93300049AFCF787FCCB0401910090D4
:103A6400440B1C431623F85E4D1322002B00C11790
:103A7400FEF74CF922002B00FEF748F9CB01440E67
:103A84001C434D16009A019BA4185D411423F85E53
:103A9400009A019BC117FEF739F94E03C20CCB14EF
:103AA4003243A4185D412B06220A1A431223F95EFD
:103AB4000B019B18BB623B0034331B78602B02D094
:103AC40000200FB0F0BD204A1E20395E94460CAA97
:103AD400D288090552BA92B2029B9203521A20204C
:103AE400395E63445943521A8021C9015218802116
:103AF400387F09025843C0124018F91CC97FD213F9
:103B040049B259438023891241439B038912C9183E
:103B14001A203B5E4B43802189015B189B1353435E
:103B2400DA135243397ED2114A4312119B1AC82226
:103B34005205934200DD13001B13FB62C0E7C0462D
:103B4400000CFEFF350C000000D4FEFFF7B5150095
:103B5400076944680C2900D07BE0E36801933B6863
:103B64009B681889FDF75EF9061C3623F85EFDF79D
:103B740059F9011C301CFCF7ABFE061C0198FDF73B
:103B840051F9011C301CFCF7C1FD2368061C188880
:103B940023691841FDF746F9011C301CFCF78EFF20
:103BA400237D061C002B02D080231B06C618FA2195
:103BB400019BA068890059430003FCF7C9FAFDF78B
:103BC40031F9011C301CFCF7A1FD061C6068FDF7EF
:103BD40029F9311CFCF726FC041CFEF731F80F0010
:103BE400CF2106000906201CFCF758FB002833D11E
:103BF40030003900194A1A4BFCF72AFB00282BD154
:103C0400201CFDF7F1F80190FDF7F0FF02000B0016
:103C140030003900FDF7A4FC0022124BFDF776FAC0
:103C24000022114B06000F00FCF7FEFA002813D106
:103C340030003900094A0A4BFCF70AFB041E0BD179
:103C4400019B300039002B60FDF79EFF6860200067
:103C5400FEBD86204042FBE72220FBE70000C0FFB8
:103C6400FFFFDF4180842E410000E0C1F7B515005D
:103C7400436802691E294BD13621515E00294AD07E
:103C84001A68586812885043FCF762FAFDF7CAF8BC
:103C94002349FCF73BFD041CFDF7D2FF0F00CF21A5
:103CA40006000906201CFCF7F9FA002835D130007B
:103CB40039001C4A1C4BFCF7CBFA00282DD1201CE0
:103CC400FDF792F80190FDF791FF02000B00300020
:103CD4003900FDF745FC0022144BFDF717FA0022CA
:103CE400134B06000F00FCF79FFA002815D1300093
:103CF40039000C4A0C4BFCF7ABFA041E0DD1019BA6
:103D0400300039002B60FDF73FFF68602000FEBDE6
:103D140086204042FBE73D20FBE72220F9E7C0462E
:103D240000007A440000C0FFFFFFDF4180842E4181
:103D34000000E0C137B50369456818680C00836862
:103D4400E968DB68002B11D001AA984700280DDB35
:103D54002A680749136860080B401360019B21001F
:103D6400C018FCF7AFF92D6880B2E86037BDC046D3
:103D7400FF7FFFFF10B541680868EFF3108401234B
:103D840083F3108882689A43826084F310880A68F7
:103D9400EFF3108183F31088034813680340136022
:103DA40081F3108810BDC046FFFEFFFFF0B50C0084
:103DB400036941685D68237985B0012B33D09A1E6D
:103DC4005642724192026679013E771EBE417603E5
:103DD4000396A679042E29D05E1EB3411B030193DA
:103DE400E67900270296012E01D1C027BF00096899
:103DF400A5421ED10C68374E019B34402243134325
:103E04000B604B68344A1340039A13434B60436876
:103E140032491A6893680B403B4393602968FFF763
:103E240089FF05B0F0BDC022D200CCE780235B013E
:103E3400D5E7C0230E68DB001E40B24204D00E68F2
:103E4400274B1E4016430E60C0264268039B116830
:103E5400B6014A6832409A4204D04A681E4E324043
:103E64001A434A6080264268019B116876010A68F9
:103E74003240934204D00A681A4E324013430B6016
:103E8400C021436889001A6893680B409F4204D09C
:103E9400936812490B403B43936080224368D201EC
:103EA4001B689968114206D0029A032A09D09A68BD
:103EB4000D490A4004E00299032902D199680A4392
:103EC4009A6021682B689942ABD0FFF733FF2368CF
:103ED4002B60A6E7FFE9FFFFFFCFFFFFFFFCFFFF1B
:103EE400FFF9FFFFFFEFFFFFFFBFFFFFF7B50C0078
:103EF400036945685B6801930979A77901290AD1A7
:103F04006279531E591E8B41C0215B03042F0CD1CF
:103F1400862040423AE002290FD1042FF8D062797A
:103F2400531E591E8B4180215B03C900002B01D015
:103F3400032AEDD1002935D1EAE76279531E5E1ECA
:103F4400B3415B03042F22D10029E1D1002B01D01E
:103F5400032ADDD1E379002B08D0012B25D12B686E
:103F6400134A934202D0134A9342D1D101272A68BB
:103F740021001368BB431360FFF718FF00202B6870
:103F8400019E1A6817431F6006CC06C6FEBD0029B1
:103F940004D003390129BBD90021C7E7002B01D084
:103FA400032AB5D1032FD5D0B2E7032BD7D0AFE77F
:103FB4000038014000440040F7B505004668046934
:103FC4005448206002F0C8FA002802D1132040426D
:103FD4009DE02068F16883681B689847002800DA30
:103FE40095E00021F06901AA01F09EFF002800DAA3
:103FF4008DE0019B002219791868FFF7E7FB002880
:1040040000DA84E001216C682B6922685F68136818
:104014008B431360606802F09FFA0028D6D0606872
:10402400A1688368DB68002B00D098472268EFF30F
:104034001081012383F310880C2013680343136059
:1040440081F3108839002800FFF7B0FE237D002B90
:1040540004D00823226891680B439360637D002B8E
:1040640005D080212268090253680B435360A37D65
:10407400002B05D080212268490253680B4353600A
:10408400E37D002B05D080212268890253680B430D
:104094005360227E2368002A25D01F4A934202D00F
:1040A4001E4A934234D16B681D481A688023916874
:1040B400DB010B4393602168637E0A685B05024061
:1040C40013430B602168A37E0A6816481B04024050
:1040D40013430B60E37E002B05D080212268090284
:1040E40093680B4393600123226811680B431360A8
:1040F400802223689203D9691142FCD08022D20322
:10410400D9691142FCD02800336A98470020FEBDCB
:1041140016205CE74869000800380140004400406C
:10412400FFFF1FFCFFFFE0FFC02210B580240369DE
:10413400D2005B68E4001B680B6043681B681B6863
:1041440013400222A34204D01A4A9B185A425341F4
:10415400DAB20A71C022436892011B685C680323C7
:10416400144200D1023BC0244B714368E4001B6835
:104174001A681B682340D20418D55A4253410333AA
:10418400C0228B71436892001B689B6813400A4AE3
:104194009B185A425341DBB2CB7142681268926851
:1041A400520400D503230020CB7110BD5A42534161
:1041B4000233E5E700FAFFFF00FDFFFF30B50A4BCD
:1041C4000A4A986819680A4D9C68C90301D4A04238
:1041D40004D211682868091811601B682B681068DC
:1041E400C018001B30BDC04610E000E0540400209D
:1041F400600400200020094A136A1B021B0A136290
:10420400074B084A1A60084B1860084B5A6007228B
:10421400986019680A431A607047C04600ED00E0D0
:1042240060040020BF1200005404002010E000E0ED
:1042340070B5FFF7C3FF0C4B0C4A186811680C4C9F
:10424400401810609621002225681A604901401B1D
:10425400FBF738FF96235B0143435B19236001F0AE
:104264001BF8FEF79FF970BD540400205C04002085
:1042740058040020F0B5334D334F85B0002956D093
:10428400431C08D101222B6893432B60FF231B0698
:104294003B6005B0F0BD3B6801930026012804DDB6
:1042A4002A4B1E00984200DC461EEFF3108372B6C0
:1042B4000393FFF783FF0022AB680293244B1C682F
:1042C400244B04191A60244B1B680093E01A904293
:1042D40033DB96235B015E43204A80191900801862
:1042E400FBF7F0FE96235B015843009B1B1B181839
:1042F4008023DB00984223D9194B984220D800230D
:1043040038600138A9686860AB60029B02985B1A48
:104314001A19884202D2019A9B181A190C4B1A6076
:10432400039B002BB5D162B6BFF36F8FB1E73B6837
:104334000193431CB1D10548B6E78020C000DEE7F5
:104344001800DCE710E000E060040020A60D000087
:104354005C0400205404002058040020BF12000014
:1043640080E8FF0070B5EFF3108572B6084A094B78
:1043740014681B68E41AFFF721FF0019002D02D10D
:1043840062B6BFF36F8F96214901FBF79BFE70BDA8
:104394005C0400205804002070B5EFF3108572B659
:1043A400054B1C68FFF70AFF2018002D02D162B6E6
:1043B400BFF36F8F70BDC0465C0400200C2270B543
:1043C4000C4D6B681A40082A11D10F200A499A0C27
:1043D40002408C5CEA6ADB0307D508490240895C29
:1043E4000748FBF76FFE604370BD0648FBE70448CF
:1043F400FAE7C046001002405071000840710008FE
:1044040000127A0000093D00020010B50120002AC4
:1044140011D0094B094993429B410A685B4282438C
:104424001A430A600C681A000440A34201D00A68C7
:1044340002405A40100010BD00366E0100200240B8
:1044440070B5041E12D0FFF7A7FF0023084A050029
:1044540000212000FDF75AFC0023064AFBF7A8FFC1
:104464000400FFF799FF401BA042FAD370BDC04679
:10447400006CDC0240420F0070B50300EFF31085BE
:1044840072B602F0FDF9074A1458180002F075F8E4
:10449400002D02D162B6BFF36F8F2000FEF71CF926
:1044A40070BDC04608000000F7B50127124E830016
:1044B40001309C5983000193019BF358A34200D817
:1044C400F7BD65682368002D13D0002B0BD028009E
:1044D4009847002807D0C2178018EB685040FF287F
:1044E40000DDFF201870EA6853783B4353700834AA
:1044F400E2E79847FBE7C046406F000810B5012487
:10450400094B03201C70FFF7CFFF00F0EBFF0420E2
:10451400FFF7CAFF00F0E2F801F0A7FA034A137BA1
:10452400A343137310BDC046180600205002002098
:1045340010B5034A03480021121A02F021F810BDF5
:104544001C060020E0010020C8221100F0B57027ED
:1045540041430F250400474312480126091800204F
:1045640087B00395053565430F4B05900290019084
:104574000E48FF182D180E4B38000496009500F0D5
:1045840075F804227B7B2C7493437B73A419094B29
:104594006402E418EF606C600748310002F025F90A
:1045A40007B0F0BD20080020E001002068040020CE
:1045B400956500082006002064040020F0B5002062
:1045C400A3B0FFF771FF214B83F308882049214BE7
:1045D4000A6A00251A40C0231B0413430B6201F02E
:1045E400E0FAFDF7C5FE02221B4E06ABFF329A81AC
:1045F400B3601E9501F0AFFF0120FFF755FF0220C5
:10460400FFF752FF00F070FC144C154B7461A022AC
:1046140005930123134E14490493920033002000A0
:10462400039502950195009500F020F804220700F7
:10463400637B20009343637302F00CF82800FFF7B8
:1046440083FF320039002000FDF750FF20080020CE
:1046540000ED00E0FFFF00FF68040020500200208E
:104664006071000801450008E8080020F0B587B033
:104674000593030058338365C365109B07270373B1
:1046840004230025437307320F9BBA4383738B18AB
:104694000E0085601900C5738561C561040004932B
:1046A400FDF74CFF049BC019B8431F1A0E9B3A0038
:1046B40002930D9B310001930C9B20000093059BFA
:1046C400FDF7FEFE044B65659B68AB4200D01B6E94
:1046D4003800236607B0F0BD6804002070B5204C94
:1046E40086B026001F4DAC4208D300F0D7FB34003F
:1046F400AC4219D300F0E2FB06B070BDA36A059387
:10470400236A0493E3690393A3690293636901939E
:1047140023690093E368A26861682068FFF7A6FF35
:1047240023685C652C34DDE7636A5A1C0FD0D843D8
:10473400C01718400A220023C117FDF7E7FA2668BC
:104744000B000200014304D1300000F061FB2C3463
:10475400CEE730000449183000F030FDF7E7C046DA
:10476400706B0008706B0008CD660008F0B50F0090
:10477400010085B0083104000391EFF3108672B68E
:10478400006AE16888422CD2200001F0B8FFA268D8
:10479400051E0FD000243900406902F054F82800A7
:1047A400EC6601F057FF0398310000F01BFB20007A
:1047B40005B0F0BD3900E06902F045F8E369A2688C
:1047C4009B186269E361934201D12369E36100208C
:1047D400236A01332362002EEAD162B6BFF36F8FDE
:1047E400E6E7110019430AD00649039889684F6126
:1047F400009231002200019300F096FAD8E72320BA
:104804004042E8E768040020F7B5040027000800E8
:104814000837EFF3108672B6216A002930D0A268F7
:10482400A16902F010F8A369A2689B186269A361E8
:10483400934201D12369A361236A2000013B2362CF
:1048440001F05DFF051E2BD0A268E069696901F0E3
:10485400FAFFE369A2689B186269E361934201D19C
:104864002369E361236A2800013323620024EC6690
:1048740001F0F0FE3800310000F0B4FA2000FEBD73
:10488400110019430AD0094989684861009231002E
:1048940022003800019300F047FAF0E72320404259
:1048A400002EECD162B6BFF36F8FE8E768040020F6
:1048B400F0B585B004001F000392EFF3108672B6C2
:1048C400C368354A002B0ED080689168884217D09F
:1048D400039B3B431AD1002E02D162B6BFF36F8F04
:1048E400102040420AE09168897B49B20133E360B9
:1048F40093682161A360002E04D0002005B0F0BDB0
:104904002169F3E762B6BFF36F8FF6E70E23897B65
:10491400C35649B2994200DD19000A007F3201DA18
:104924007F21494200258B4202DD01F038FE05005B
:104934001A4B22000293039B3100029800930197C3
:1049440000F0F2F90028D8D0EFF3108672B6A06810
:10495400002819D0236821699C420BD0002B09D070
:104964009B7B5BB2994200DD19000B007F3301DAB7
:104974007F21494201F013FE002805D0310002983E
:1049840000F030FA0B20ACE7002DF7D1002EF9D15E
:1049940062B6BFF36F8FF5E76804002019060020A4
:1049A40070B583680400002B2AD0184A9268934299
:1049B40029D1C368012B03D9013BC360002070BD1A
:1049C400EFF3108572B60169806801F0E8FD2000FC
:1049D40001F095FEA06000280BD00E23C35623617E
:1049E4000023C36601F036FE2900094800F0FAF9F5
:1049F400E4E7E060002DE1D162B6BFF36F8FDDE73D
:104A040016204042DBE70120FBE7C0466804002093
:104A14001906002070B50400EFF3108572B601F09A
:104A24006EFE002808D00023C36601F013FE29009F
:104A3400084800F0D7F970BDA268E3689B1A591EB4
:104A44008B419B18A360002DF5D162B6BFF36F8F25
:104A5400F1E7C0461906002013B50400EFF31081F6
:104A640072B68068002808D00138A060002902D1FD
:104A740062B6BFF36F8F002016BD1000184307D134
:104A8400002902D162B6BFF36F8F10204042F3E7D2
:104A9400009201932200024800F046F9ECE7C04678
:104AA40019060020C289030000207F2A11D80A4A6F
:104AB400106800280DD00E21084A595612680020AB
:104AC400914206DB5A7BD20603D10548181A431ECD
:104AD4009841012318407047900400208C04002062
:104AE400E00100200121044B044AC01A044BC01009
:104AF4004343D1547047C046C00200201906002029
:104B0400ABAAAAAA70B518240C4B05001E7C0C4B4A
:104B14007443E418200001F034FE0022094B2800FD
:104B24009A55FFF7BFFF002807D0074B20001A68EB
:104B34000649013AD31700F041FB70BD6804002018
:104B4400C00200201906002090040020E94A000851
:104B540070B50E4D0E4BAC699C4201D0002C00D1B7
:104B6400EC68AB68002808D15A7BD20605D1A2694B
:104B7400002A02D1DA897F2A05D89C4202D020007B
:104B8400FFF7C0FF23006B6170BDC04668040020BE
:104B9400800400200D2270B582560400437B002A55
:104BA40004DA7F221340437301F018FD8023627BF3
:104BB4005B421343134A637393691348834200D1DE
:104BC4000023D169002B04D1206061600C60D461A2
:104BD4000CE00E250E2665579E57B5420DD0AE4209
:104BE4000BDD5968236061600C605C609068001B99
:104BF40043425841FFF7ACFF70BD9942E4D01B68B3
:104C0400E0E7C04668040020800400200D2370B54E
:104C1400C356417B002B26DBCB0624D18369002BB2
:104C240021D1802252420A434273114A114C9169A4
:104C3400A14200D00B00D169002B04D10460416073
:104C44000860D0610CE00E250E2645579E57B542EC
:104C54000AD0AE4208DD5A680360426010605860B2
:104C64000020FFF775FF70BD8B42E7D01B68E3E7B8
:104C740068040020800400200D2210B58256040030
:104C8400437B002A04DA7F221340437301F0A6FC1D
:104C9400034B9868001B43425841FFF759FF10BD6E
:104CA4006804002070B51D001600040001F0A9FC82
:104CB4002B00721C01D1013306D0200032002B00DE
:104CC4000249183000F07AFA70BDC046CD6600087B
:104CD40070B5EFF3108572B6104A114B94681868DA
:104CE400A04207D1FFF70EFF002D02D162B6BFF339
:104CF4006F8F70BD00211960127C0A4B9B5C8B4244
:104D0400F2D02000FFF7CEFE0028EDD0637BDB0657
:104D140002D12000FFF73EFF2000E3E768040020F3
:104D2400880400201906002010B509480C00094B1E
:104D3400110082681A60EFF3108372B6029A039B23
:104D44008068FFF7AFFF2000FDF758FB10BDC04699
:104D54006804002088040020F8B50400EFF31087ED
:104D640072B6437B4EB2DA061BD18569002D18D189
:104D74007F221340437301F031FC8023627B5B424A
:104D840013436373154BA6739A6915498A4200D07D
:104D94001500DA69002D0CD1216062601460DC61B9
:104DA40012E00020A673002F02D162B6BFF36F8F0A
:104DB400F8BD0E20285686420BD0B04209DD6B6840
:104DC400256063601C606C600120FFF7C1FE012058
:104DD400E9E7AA42E0D02D68DCE7C0466804002079
:104DE4008004002010B500290AD1EFF305800028C3
:104DF40007D1064B9A685B699A4202D0FDF7FEFA26
:104E040010BD62B6BFF36F8FFAE7C0466804002096
:104E140010B5EFF3108472B60422437B134205D11C
:104E2400002C02D162B6BFF36F8F10BD934343735E
:104E3400FFF7ECFE21000248FFF7D4FFF5E7C04678
:104E44001A06002070B50400183001F09AFCEFF344
:104E5400108672B60D22A256637B002A05DA7F22E1
:104E640013402000637301F0B9FB10230A4D627BE9
:104E7400A8681343001B637343425841FFF768FE5D
:104E8400002E02D162B6BFF36F8FAB68A34201D18B
:104E940001F05CFC70BDC04668040020EFF3108193
:104EA40072B6054B9A68D37B013BD373002902D1B8
:104EB40062B6BFF36F8F70476804002010B5EFF33C
:104EC400108472B6074B00209A68D37B0133D373E6
:104ED400FFF73EFE002C02D162B6BFF36F8F01F0E4
:104EE40035FC10BD68040020024B034A9A61DA6164
:104EF4007047C0466804002080040020F8B5EFF332
:104F0400108572B67F22194CA068437B134043730B
:104F140001F064FB8022A3685242597B14480A437F
:104F24005A73A269824200D10022E169002A04D1A5
:104F3400186059600B60E3610CE00E260E279E5743
:104F4400D757BE420DD0B7420BDD51681A60596085
:104F54000B6053600120FFF7FBFD2800FDF74EFABC
:104F6400F8BD8A42E4D01268E0E7C0466804002035
:104F7400800400200300F7B50B4304000D00002B50
:104F840003D1FFF7BBFF0020FEBD4B1C2EDB4B1CE7
:104F940001D1831C2AD301F007FC2718EFF31083F7
:104FA40072B6144E0193B068134B1860FFF764FE99
:104FB400B06822002B001149183000F0FFF81023CC
:104FC400B2680198517B0B435373FDF717FA01F054
:104FD400EBFB00233A0004001D00121BAB41AB4263
:104FE40002DCD0D1AA42CED01000CDE702277F4206
:104FF4003F1BD3E76804002088040020CD66000826
:1050040010B50B000C00421C07D1013305D1074B2E
:105014009868FFF717FF200010BD2100FFF7AAFFD3
:105024000A220023C117FBF7C3F9F5E7680400203F
:10503400014B98687047C0466804002070B50400AE
:10504400EFF3108672B6037BDB0708D5002E02D17E
:1050540062B6BFF36F8F042062B602DF70BD08230F
:10506400427B1A4205D0002EF8D162B6BFF36F8F8F
:10507400F4E72021100088430100194348B20028B6
:1050840020DB6173A368002B02D0200001F0AEFA8C
:105094002000183001F075FB2300A56D58339D42A4
:1050A40001D0002D16D10120FFF752FD104B9B6853
:1050B400A342D8D1EFF30583002BD4D13000FDF700
:1050C4009DF9D0E75F210A4013432000637301F088
:1050D40085FAD7E7280001F089FA2800183001F092
:1050E40050FB00232800EB66FFF790FDD4E7C04691
:1050F4006804002010B50648064A0749121A01F050
:1051040043FA064A0649074801F03EFA10BDC04674
:1051140000000020DC010020BC7100080000000039
:10512400BC71000800000020002010B5034B1B6870
:10513400834201D1FFF716F910BDC0469404002044
:1051440070B50E4B1E689E4203D1FFF7EDFF0C486D
:1051540070BDFFF7E9FF002EF9D0326973690400CE
:10516400C517121BAB41002BF1DC03D180210906CA
:105174008A42ECD2D843C0171040E9E77C010020F2
:10518400FFFFFF7F30B500280ED00B4B5B689842C1
:105194000AD00168002907D00A694B690469456986
:1051A40012196B410A614B610368426813605A60CB
:1051B40000230360436030BD7C010020F7B5040088
:1051C40016001F00531C01D17B1C57D0A160EFF3C4
:1051D400108372B60193002F23DA7B1C01D1B31C18
:1051E4001FD82B4B1868596802225242D317121A3F
:1051F4008B41921BBB41002B04DC01D1002A01D15D
:1052040001220023234F226163613D68BD4200D126
:1052140000257E68002D0FD12760666034607C60B5
:105224001CE0FFF781FF0122002392197B41060055
:10523400C71792197B41E5E728696969226963699F
:10524400994202DC1BD1904219D9801A99416B68AA
:1052540028616961636025601C606C603B68BB42C7
:1052640006D09C4204D1FFF76BFF0021FFF702F840
:10527400019B002B02D162B6BFF36F8FF7BD121AE8
:105284008B4122616361B542C6D02D68C2E7C04636
:10529400D80200207C010020F0B585B0EFF3108324
:1052A40072B60293304B1860304B1C689C4200D19C
:1052B40000242F4B2C4D0393186859682B689C4687
:1052C400002C39D062692669DB179A4202DC0AD1C4
:1052D400664508D91F00226963696646921BBB4173
:1052E4002261636128E0F31700960193009A019B01
:1052F40080185941002300221D4F226163613860E8
:1053040079602000FFF73EFF029B002B02D162B6BA
:10531400BFF36F8F2000A3689847EFF3108372B632
:105324000293114B1A68921B1A60104B94461C6826
:105334009C42BED1386879686246D31712184B4133
:10534400002403992C600A604B60FFF7F9FE2100EA
:10535400FEF790FF029BA34202D162B6BFF36F8FA8
:10536400FFF7B6FC05B0F0BD940400207C010020DA
:10537400D802002010B5EFF3108472B6FFF7D4FE04
:1053840002000649C3170868496880185941002C6F
:1053940002D162B6BFF36F8F10BDC046D8020020A1
:1053A400F7B50400EFF3108572B603680195002B7E
:1053B40005D0002D52D162B6BFF36F8F4EE0826AE2
:1053C400C36A0021012080185941002901D1012814
:1053D40029D9002B04DC01D1002A01D101220023A8
:1053E40001267642F717B6185F4101F0E1F9012270
:1053F40000238018594180197941002902DC2ED1FB
:1054040000282CD001F0D4F901220023801859413E
:1054140002225242D31780197941121A8B4120007B
:105424001849FFF7CBFE236B01332363236A002B58
:105434000BD0002D02D162B6BFF36F8F2000236A18
:105444009847EFF3108372B60193A5691834A54207
:1054540001D0002D07D1019B002BACD0F7BD022257
:105464005242D317DBE7280001F000F90023EB6672
:10547400019B002B02D162B6BFF36F8F280001F0AD
:10548400E9F8EBE7A553000870B5060014001D0009
:10549400511C01D1591C22D0002B03DA591C0FD105
:1054A400911C0DD914001D1E05DC002B01D1002A0E
:1054B40001D10124002501225242D317A4185D41D1
:1054C400300001F05EF9049A059BB262F362002396
:1054D4002200336330002B000149FFF76FFE70BDDB
:1054E400A553000810B5024800F0C5FA10BDC04627
:1054F4006871000810B5064C064B9C4201D300208D
:1055040010BD2000A268616801F095F91434F3E736
:10551400B4010020B4010020F8B506000D00140009
:105524002727930502D50B4B203F1C403000210058
:10553400FAF704FEC9B233000600092901D9C919D2
:10554400C9B23031681C29709C4200D9F8BD0500ED
:10555400ECE7C046FFFDFFFFF0B543688FB0049051
:105564000693837817009B0700D4F3E0002301938C
:105574000D78002D6CD0252D0DD04B1C0793019B6D
:10558400013301930499069BE8B29847002800DA96
:10559400E0E00799ECE74D788B1C0793252DEED0BE
:1055A400002304211C00079A0293059307921F2CE1
:1055B4002FD82800203810280AD8FAF779FD1E09B8
:1055C40009280909091F0909091C092609091900DB
:1055D4002B00303B092B2AD92A2D34D101CF650663
:1055E40000D575E0002829DB202505902C4305E033
:1055F40001231C4302E002231C430C43079B01329A
:105604001D78002DD2D107922EE00823F1E7102354
:10561400EFE77F2C1FD82B00303B092BDCD860062A
:1056240005D50A20029D6843C3180293E6E70A20C1
:10563400059D6843C31805932023DAE743422820D5
:1056440005930443DAE72E2D05D140231C42D0D024
:1056540001980FB0F0BD6C2D2DD027D8682D31D016
:105664006A2D32D04C2D30D0029B002B03DA40231C
:105674009C430023029320232B431A00653A022AF9
:1056840001D9612B26D10725FB1DAB4308331F002D
:10569400B34E240753D5019B019CEB180293029B44
:1056A400A3424ED1059B029C5D1B4EE1742DA5D0F7
:1056B4007A2DA3D0D8E780231C429AD08020800082
:1056C400044396E780235B00F6E7A0239B0090E762
:1056D400029093E728006338122800D9CDE0FAF746
:1056E400E7FC0A3DCCCCCCCC3DCCCCCCCCCCDEC87D
:1056F400CCCC0FCC930004CF0BAE01253270C8E79D
:1057040040CF002E00D1974E0299630601D40121A7
:105714004942300001F0A8F80500BAE720200499B6
:10572400069B9847002815DB013CA542F6D3059A51
:10573400019B944663441B1B01930594ABE7059CB2
:10574400F3E7019B0499F31A185D069B984701340B
:105754000028A4DA01235B42019379E723063CD5B0
:10576400A30538D50722FB1D93431F00186808378B
:10577400102326009E43002838DA8023DB001E43D2
:105784004042B6B20A220BAC2100FFF7C5FE041B4F
:10579400730654D5012332009A431300029AA2429D
:1057A40000DC93E0002D00D18CE010223100114088
:1057B4000991164200D08BE01E00029A0392320037
:1057C400694B1A4009921E4243D0039B0133039351
:1057D400002309933DE001CFCAE701CFE305C7D514
:1057E400A30501D540B2C3E700B2C1E70028C9D17F
:1057F4006306C7D5029B002BC4D111339C432600FA
:10580400029C23000393DAE710230A229C43230615
:105814004AD5A30546D50721FB1D8B431F001868F5
:105824000837002849D1162326009E43630647D52E
:10583400029B002B44D117339C432600029C102367
:1058440032001A4009921E424BD0002D47D1631CEE
:10585400039333075CD4F30709D5059B039A029499
:10586400934204DD9B1A1B190293059B0393039B2C
:1058740042E0102278251443C9E7782B05D1102281
:10588400582DC4D184229200C1E725200499069B97
:105894009847002800DA5DE7019B023371E608228D
:1058A4000025B4E701CFBCE701CFE305B9D5A305D3
:1058B40001D5C0B2B5E780B2B3E706239C43260006
:1058C4000BAC61E711239E43029B9BE71E00B6E7E6
:1058D4001E002200029CA31C03931400B9E72200BB
:1058E400F9E703946BE720200499069B9847002866
:1058F40000DA2FE7089B01330893089A059B93422B
:10590400F1DC039A019B9B1A089A9B18019303925A
:10591400099B002B2AD030200499069B9847002825
:1059240000DA17E7019B002D11D101330193019E89
:10593400029B019A9B189B1B9C4225DB2500002D92
:105944002AD1059B039AA4199D1A019437E00233C6
:105954000193E8B20499069B98470028E7DAF9E630
:10596400B1710008AA71000806040000174B1E421A
:10597400DDD02020B30700D50B30760500D52D20CF
:10598400019B01330193E5E730200499069B01361E
:1059940098470028CCDADDE60BAB013DE85C0499BE
:1059A400069B98470028CADAD4E6019B20200133DD
:1059B40001930499069B9847002800DACAE6019AE5
:1059C40063199B1A002BF0DCE3E5C04606040000D3
:1059D400704743681889704770B588B015006A46E7
:1059E4001C00436848BAD0801889091906328142DC
:1059F40011D86E46002118689B88029202223174E5
:105A04000731039205950694317781688C6802A961
:105A1400A04708B070BD16204042FAE710B54368AD
:105A2400186800F099FD002010BD30B544681500D9
:105A34002289C81889B0904214D86A4649BAD180DC
:105A440006326846029200210222017403920595EF
:105A5400069302772068A38881688C6802A9A0470E
:105A640009B030BD16204042FAE710B5FCF702FC3D
:105A7400FCE7002070470FB407B504A901C90191E0
:105A8400FCF73CFC03B008BC04B01847C90040183C
:105A9400408840087047F8B50D000400FFF7F6FF92
:105AA400FAF724FC1F21091A8A00A218EB001069D6
:105AB4001F1D0633E719E318AEB2002808D10130E0
:105AC4008840E1680143E16015613E801E80F8BDB5
