:020000040800F2
:10000000A80D0020392B00082F770008F52A0008DA
:1000100000000000000000000000000000000000E0
:10002000000000000000000000000000252900087A
:100030000000000000000000B5280008314700085B
:100040009D2900089D2900089D2900089D29000878
:100050009D2900089D2900089D2900089D29000868
:100060009D2900089D2900089D2900089D29000858
:100070009D2900089D2900089D2900089D29000848
:100080009D2900089D2900089D2900089D29000838
:100090009D2900089D2900089D2900089D29000828
:1000A0009D2900089D2900089D2900089D29000818
:0400B0009D2900087E
:1000B40002B4714649084900095C49008E4402BCF7
:1000C4007047C046002934D00123002210B488426E
:1000D4002CD301242407A14204D2814202D2090173
:1000E4001B01F8E7E400A14204D2814202D2490094
:1000F4005B00F8E7884201D3401A1A434C08A04237
:1001040002D3001B5C0822438C08A04202D3001BCC
:100114009C082243CC08A04202D3001BDC082243E3
:10012400002803D01B0901D00909E3E7100010BC23
:10013400704701B5002000F05FF802BD0029F8D037
:1001440003B5FFF7C1FF0EBC4243891A1847C046E6
:10015400002941D010B404004C40A44601230022DD
:10016400002900D54942002800D5404288422CD3BA
:1001740001242407A14204D2814202D209011B01B5
:10018400F8E7E400A14204D2814202D249005B00B4
:10019400F8E7884201D3401A1A434C08A04202D31C
:1001A400001B5C0822438C08A04202D3001B9C085D
:1001B4002243CC08A04202D3001BDC0822430028BF
:1001C40003D01B0901D00909E3E710006446002CA1
:1001D40000D5404210BC704701B5002000F00CF877
:1001E40002BDC0460029F7D003B5FFF7B3FF0EBC2C
:1001F4004243891A1847C0467047C04684461000D7
:1002040062468C461900634600E0C0461FB500F004
:1002140005FF002801D40021C8421FBD10B500F01D
:1002240045FE4042013010BD10B500F0F7FE002835
:1002340001DB002010BD012010BDC04610B500F048
:10024400EDFE002801DD002010BD012010BDC046D8
:1002540010B500F06DFE002801DC002010BD012067
:1002640010BDC04610B500F063FE002801DA00207E
:1002740010BD012010BDC046844608006146FFE75A
:100284001FB501F068FE002801D40021C8421FBD3B
:1002940010B501F0EBFD4042013010BD10B501F086
:1002A4005AFE002801DB002010BD012010BDC0460D
:1002B40010B501F050FE002801DD002010BD012022
:1002C40010BDC04610B501F0F8FD002801DC002087
:1002D40010BD012010BDC04610B501F0EEFD002890
:1002E40001DA002010BD012010BDC0461C210123ED
:1002F4001B04984201D3000C10391B0A984201D305
:10030400000A08391B09984201D30009043902A2E2
:10031400105C40187047C046040302020101010149
:100324000000000000000000414208401C2101239D
:100334001B04984201D3000C10391B0A984201D3C4
:10034400000A08391B09984201D30009043902A2A2
:10035400105C401A7047C0461B1C1D1D1E1E1E1E2D
:100364001F1F1F1F1F1F1F1F002B15D1002A13D172
:10037400002906DB01DC002806D00020C043410828
:1003840002E080210906002007B4024801A14018B8
:10039400029003BD65FEFFFF03B4684601B50298F1
:1003A40001F04CFD019B9E4602B00CBC7047C04658
:1003B400002B11D1002A0FD1002900D1002802D02E
:1003C4000021C943080007B4024802A14018029062
:1003D40003BDC04625FEFFFF03B4684601B502987D
:1003E40001F0BDFC019B9E4602B00CBC7047C046A8
:1003F400084A43081340C01A0200074B80081840FB
:100404001A40121813099B18044A0548134058430C
:10041400000E704755555555333333330F0F0F0FB7
:10042400010101014A02F8B543024400C50F500A14
:1004340084464800240E000E5F0AC90F9B099209E6
:10044400261A8D4200D09EE0002E42DD8021C90490
:1004540000281ED1002A0AD0661E012C05D19B1843
:1004640001340B4246D1013C01E0FF2C14D15A0760
:1004740004D00F221A40042A00D004335A0100D4B5
:100484002EE101340026FF2C19D09D4EDB081E40BE
:1004940015E0FF2CEBD00A431B2E01DD0133E6E708
:1004A4002020801B11008240F140501E82410A43EB
:1004B4009B185A01DBD501340026FF2C1AD1FF23E7
:1004C400E005DB057602760A18403043ED07284341
:1004D400F8BD002E2ED08026011BF604002C14D16A
:1004E400002B00D1F3E04C1E01290AD19B180224F1
:1004F4003342B8D0012283491A405B080B401343AE
:10050400B5E7FF2906D11300AEE0FF2800D1E0E0F3
:100514000C0033431B2C02DD531C0400A7E7190015
:100524002026E140341BA3405C1EA3410B4304007E
:100534009B18BEE7FE20611C01421ED1002C0DD188
:10054400002B00D1C7E0002A00D190E79B185A0184
:1005540000D48CE76C4A13400C0088E7002BD2D0FF
:10056400FF24002A00D182E78023DB039F4202D3C9
:100574009C4500D26746FB0076E00C00FF299ED024
:100584009B185B0873E7002E25DD00281CD1002A88
:1005940000D16CE7661E012C06D19B1A5A0100D4C7
:1005A40065E79B019E0975E0FF2C00D15FE70121FF
:1005B4001B2E07DC2020801B11008240F140501EBE
:1005C400824111435B1AE9E7FF2C00D14FE78021F8
:1005D400C9040A43EBE7002E25D0051B002C0DD1DE
:1005E400002B08D06E1E012D03D10D00D31A013447
:1005F400D4E7FF2D08D113002C0021E0FF286CD094
:1006040080242E00E404234301241B2E07DC202530
:10061400AD1B1C00AB40F4405D1EAB411C43131BDF
:100624000D000400BAE7FE26601C30422DD1002CD8
:1006340014D1002B06D125002600131E00D13EE75D
:100644000D0014E7002A00D111E79E1AD31A700195
:10065400F6D4331E00D00AE7350030E7002B05D16D
:10066400002A49D013000D00FF2400E7FF24002ACC
:1006740000D1FCE68023DB039F4200D27BE79C454C
:1006840000D378E767460D0075E79E1A700115D50B
:100694000D00D61A3000FFF729FE330005388340D9
:1006A400844210DC2022001B0130121A19009340EE
:1006B400C1405A1E934100240B43D8E6002EE9D1D1
:1006C40035003400FBE6104A241A1340CFE6130029
:1006D40042E7130021E71300C9E613000400AFE763
:1006E400DE08FF2C00D0EAE6002E00D1E7E68023E6
:1006F400DB03FF241E43E2E680261500F603F6E73B
:10070400FFFF7F1FFFFFFF7DFFFFFFFBF0B5C30F60
:1007140085B0440245000F1C640A2D0E0393029316
:100724000AD0FF2D3BD08023E400DB041C430023CC
:100734007F3D019500930EE0012301940093002C6A
:1007440009D02000FFF7D2FD431F9C4076235B4273
:100754001B1A019300957D027E006D0A360EFF0F71
:10076400002E23D0FF2E2ED08023ED00DB041D436A
:1007740033007F3B002201980399C31A0098794003
:100784008000104301380E2823D8FFF791FC4D99BF
:1007940073999299734D4D92736161615300022371
:1007A40001950093002CD6D00133C3E72B0001221E
:1007B400002DE0D02800FFF799FD431F9D407623CC
:1007C4005B421B1AD6E733000222002DD3D001323C
:1007D400D1E764016D01AC4228D31A200122641BC5
:1007E4000126270052006400002F01DBA54201D836
:1007F400641B324301380028F3D1601E8441144342
:1008040018007F30002838DD620704D00F22224010
:10081400042A00D00434220103D5803318002B4A63
:100824001440E508FE281DDD00250FE01B200022F2
:10083400013BD5E78023DB031C4203D01D4201D1D9
:100844002C00029780250299ED032543FF2009E03F
:100854000399009A022AE7D0032A2FD00025280002
:10086400012ACDD16D026D0AC0052843C90708438A
:1008740005B0F0BD2C003900ECE701220025121A66
:1008840028001B2AEEDC9E3325009C40D540631EC5
:100894009C4125436B0704D00F232B40042B00D02D
:1008A400043580232800DB0418401D420BD1ED08D9
:1008B400D8E780240023E4030293C3E70291C1E74D
:1008C40000252800CEE700250120CBE7FFFFFFF736
:1008D400F0B5C30F85B04702440002917F0A240E8D
:1008E40003930AD0FF2C71D080227F3C2600002382
:1008F400FF00D204174301930CE001233E1E019331
:1009040008D03800FFF7F2FC7626431F9F4076425A
:10091400361A0194029B5C025D00DB0F640A2D0E03
:1009240002935AD0FF2D64D080232800E400DB0416
:100934001C437F3800230299039A4A408119019885
:100944008C46850001311D430A2D00DD78E0022D1F
:1009540055DC013D012D63D9250CA4B226003B0CC6
:10096400B8B246435C4368436B4300191F00330C21
:100974001B189C4202D9802040023F181804B6B2CA
:100984008619B401601E84411B0CB60EDB19344376
:100994009B011C431B0168D5012360081C400443D0
:1009A40008007F30002862DD630704D00F23234052
:1009B400042B00D00434230103D5803108003E4BBE
:1009C4001C40E508FE2833DD00254CE00223260008
:1009D4000193002F9ED001338DE720000123002CCA
:1009E400A9D0FFF783FC431F9C4076235B42181A6F
:1009F400A0E728000223002C9DD001339BE70120AF
:100A0400A840A6250600ED002E4028421DD19025C1
:100A1400AD00284247D1B93DFF3D28429CD0029AFF
:100A2400022BD1D0032B42D000252800012BB7D1B3
:100A34006D026D0AC0052843D207104305B0F0BD0E
:100A4400039A0F2D04D00B2DE9D03C00019BE7E75E
:100A54008023DB031F4203D01C4201D12700029AEA
:100A64008025ED033D43FF20E2E7614698E701233B
:100A740000251B1A28001B2BDADC9E3125008C4034
:100A8400DD40631E9C4125436B0704D00F232B409C
:100A9400042B00D0043580232800DB0418401D42B9
:100AA40007D1ED08C4E780273200FF03D8E7270009
:100AB400D6E700250120BBE7FFFFFFF7F0B54602AC
:100AC400730A85B001930393DA004B024400C50F07
:100AD400580A02904800240E000EC90F9B09FF28F3
:100AE4001DD1FF277F42BC46A444002B0BD00F002E
:100AF4008D4200D0D8E06146002900D182E0002C6C
:100B040073D1040061E001274F40BD4200D0D3E01F
:100B14006146002976D0002CF3D0FF2416E001278B
:100B2400BC464F40211ABD4200D095E0002942DD69
:100B34008026F604002820D1002B1CD0611E6445B9
:100B440017D19B18022433422ED164465A0704D08D
:100B54000F221A40042A00D004335A0100D432E18F
:100B640001340026FF2C00D1E4E09C4EDB081E403B
:100B7400E0E0FF2C04D11300E8E7FF2CFBD0334363
:100B84001B2901DD531CE1E718002026C840711A17
:100B94008B40591E8B4103439B185A01D6D501340F
:100BA4000026FF2C00D1C5E001228D491A405B08C4
:100BB4000B401343CAE7002924D0011B002C03D0A7
:100BC4008024E40422430DE00C00002ABED0611E00
:100BD400012C05D19B1801345A01E5D4013CB5E739
:100BE400FF2CB3D01B2902DD01330400AEE714004F
:100BF4002026CC40711A8A40511E8A4122439B18F8
:100C04000400CAE7FE20611C01421ED1002C0AD157
:100C1400002A9BD0002BAED09B185A0196D5714A5E
:100C24000C00134092E7FF24002A8FD0002BA2D09F
:100C34008023019ADB039A4204D3029A9A4201D296
:100C44003D000392039BDB0067E70C000026FF29AD
:100C540070D0D3185B0879E7002935DD00281CD152
:100C6400002B88D0611E012C07D16446D31A5A0187
:100C740000D46BE79B019E0988E0FF2C00D17AE742
:100C840001201B2907DC18002026C840711A8B405C
:100C9400591E8B411843131AE9E7FF2C00D16AE768
:100CA4008020C0040343EBE76646002E36D0002CB8
:100CB40019D004000D0049E7614600292ED0002C0C
:100CC40014D004003D0041E7002927D0061B002C66
:100CD4001FD13D003400002A00D137E7661E012CE5
:100CE40006D19B1AC3E70D000400F4E73D00FBE7BF
:100CF400FF2C00D12AE701211B2E07DC2024A41B92
:100D04001100A240F140541EA241114304005B1A99
:100D1400ADE78021C9043D000A43ECE7FE20611CD5
:100D240001422ED1002C1DD1002A0ED1250026000F
:100D3400002BC7D1FF23E005DB0576021840760AB5
:100D44003043ED07284305B0F0BD002B00D112E776
:100D5400D61A710101D59B1AB4E7331E00D0F5E60B
:100D64002500E7E7002A07D13D00002B00D0D4E698
:100D740080261D00F6032BE0002B00D058E713005B
:100D8400CBE6D61A710115D53D009E1A3000FFF747
:100D9400ADFA330005388340844210DC2022001B66
:100DA4000130121A19009340C1405A1E9341002485
:100DB4000B43CBE6002EE9D135003400BAE7094AEB
:100DC400241A1340C2E6DE08FF2CB3D1002EB1D0A2
:100DD4008023DB03FF241E43ACE7C046FFFF7F1FD5
:100DE400FFFFFF7DFFFFFFFB41024300C20F490AE3
:100DF40000201B0E7E2B03DD9D2B02DD084BD0183B
:100E04007047802000040843952B05DD963B9840ED
:100E1400002AF5D04042F3E79621CB1AD840F7E7F1
:100E2400FFFFFF7F70B503000400051E0ED0C2173C
:100E340085185540C40F2800FFF758FA9E231B1A43
:100E4400962B0ADC08282CD0083885406A02D8057D
:100E5400520A1043E407204370BD992B1CDD052280
:100E64002900121AD14002001B3295402A00551E57
:100E7400AA4111430D002A000B4E3240690704D0E9
:100E84000F212940042900D00432510102D59F23A7
:100E940032401B1AD508D9E7421F0528EBD09540EC
:100EA400E9E79623D2E7C046FFFFFFFBF0B50D004C
:100EB40087B000920193040004900198EB0F460060
:100EC400C70F1A4803938446009B09030593019BAB
:100ED4006A001B030120090B520D1B0B760D6245A2
:100EE40003D066450DD107B0F0BD9642FBD1009A00
:100EF4000B4313432343F6D1039BD81B431E984152
:100F0400F1E70120B242EED19942ECD1049B059E57
:100F1400B342E8D1039BBB4206D0002AE3D121436C
:100F24004B1E99410800DEE70020DCE7FF070000C4
:100F3400F0B587B0009001911D00009B140004934C
:100F4400019B29031A03130B334A03939446019B11
:100F540068005F007B0D0293029A019B0594DB0FEE
:100F6400090B400DEE0F624512D1009A039F1743FF
:100F74004FD1029A904204D00120002B06D00238AF
:100F840004E02143081E44D1B342F5D107B0F0BDBB
:100F9400604511D121433CD1029A002A04D0B342C6
:100FA400EAD1181EF2D105E0009A03991143F6D153
:100FB400301EEBD101202DE0029A002A17D0002820
:100FC400DAD0B342D8D1029A8242D5DC029A824264
:100FD400E7DB039A8A42CFD8E3D1049A05998A427F
:100FE400CAD8049A059900208A42CFD2D9E7009F33
:100FF400039A1743002802D0002FD9D0CFE70C431F
:1010040004D0002FD4D0B342E3D0B5E7002FBDD035
:10101400B2E702204042B9E7FF070000F0B587B00D
:10102400009001911D00009B14000493019B680033
:101034001A03130B344A03939446019B05945F00EF
:101044007B0D0293019B029AD90F2B031B0B400DBE
:10105400EE0F624513D1009A039F174352D1029AAF
:10106400904204D00120002907D0023805E0022074
:10107400234302D11800B142F4D107B0F0BD60455A
:1010840013D102202343F8D1029B002B04D0B14298
:10109400E8D1081EF1D105E0009B039A1A43F6D16A
:1010A400301EEAD101204042E7E7029A002A17D015
:1010B4000028D7D0B142D5D1029A8242D2DC029A1A
:1010C4008242E6DB039A9A42CCD8E2D1049B059A89
:1010D4009342C7D8049B059A00209342CDD2D8E707
:1010E400009F039A1743002802D0002FD8D0CEE7E0
:1010F4001C4304D0002FD3D0B142E3D0B2E7002F79
:10110400BBD0AFE70220B8E7FF070000F0B58BB013
:10111400009201930D034B00CA0F06002D0B5B0DCB
:10112400059200D114E1CF4A934200D138E1ED0099
:10113400420F2A4380252D041543CB4AC4009B1833
:10114400039300230293019B00981E035A00DB0FB4
:10115400360B520D049300D131E1C24B9A4200D1B7
:1011640053E1430FF60033438026BF4936041E4340
:10117400C300501800220599049F794000910399F7
:1011840041180691013103910299880010430A28FD
:1011940000DD73E1022800DD46E10138012800D8B2
:1011A40055E1190C9BB202911900220CA4B25143CF
:1011B40020008C46029F029958435143674305918E
:1011C4006744010CC91904908C4505D9802040025C
:1011D4008446059F67440597080C84466846008A40
:1011E400090409180991310CB6B2049130002100A8
:1011F400049F50437C4371437A4324180F0C3C19D9
:10120400A04202D9802040021218200C8218240423
:1012140089B2079262180892089962468C46290C92
:10122400ADB22800029F58436F434B436244944637
:10123400029CFF18020CD2194C43934202D980231A
:101244005B02E418130C1B1902932B0080B21204E6
:1012540012180498734345434E434143A8191D0C87
:101264002D18AE4202D9802040020918059C604620
:10127400A446089C6044A042BF4180189042924119
:101284002E049BB2F618079B7F42F6185342049330
:10129400029BF4199C46A4446346049ABC42A441AC
:1012A4009B18079A64429642B641029A76423443A6
:1012B4002D0C64199445AD41049A6D4293429241B8
:1012C400524215436419099A6418410211434A1E93
:1012D4009141C00DDE0D640201435B0226430B43C2
:1012E400E40100D4DFE001215A080B401A43F3075C
:1012F400CE401343039A5D495218002A00DCD5E01E
:10130400590709D00F211940042905D0191D994204
:101314009B415B42F6180B00F10106D58021C90000
:101324008C46534A1640039A624452498A4200DD6D
:1013340009E17407DB081C43F60813053603009A19
:10134400360B3343D2071343200019000BB0F0BD12
:101354002C0004432BD0002D16D02800FEF7C6FF26
:10136400040002000B3C1D2330001B1B1100D8405D
:1013740008398D4003002B4335008D403E492C0035
:101384008A1A1D000392DCE6FEF7B0FF0400020097
:10139400153420321C2CE6DD330008388340EDE799
:1013A40004002C4307D0039304000323CAE625005A
:1013B40001230394C6E6039325000223C2E6009B9F
:1013C400334329D0002E14D03000FEF78FFF0100E4
:1013D40003000B391D221800521A00990838864060
:1013E400D1403143009E86402348C01A33000E008A
:1013F400C0E6FEF77BFF01000300153120331C29F2
:10140400E8DD009908388140EEE7009B334307D0BC
:10141400030010000322AEE61E0018000122AAE613
:1014240010001E000222A6E601218140A6200F0022
:10143400C0000740014227D190208000014277D1AB
:10144400B938FF38014200D1ABE604990091022A71
:1014540079D0032A75D0012A00D04BE70026340046
:1014640032006AE7FF07000001FCFFFFFF030000F2
:10147400FFFFFFFEFE0700000DFCFFFF0599009132
:101484000F2805D00B28E0D02E002300029ADEE7B7
:101494008022120315424FD016424DD13500049AD2
:1014A40000921C0048E0069A039223E70120801A68
:1014B4003828D3DC1F2827DC2649039A8C461C00D5
:1014C4006244310093409140C4401A002143531EAA
:1014D4009A410B00C64013435A0709D00F221A4001
:1014E400042A05D01A1D9A429B415B42F618130048
:1014F40080213000090408400E4227D17407DB081C
:1015040002001C43F60818E71F2149428A1A3100D9
:10151400D1400022202805D00F48039A8446624413
:101524009640320013435A1E934100260B43D3E7DF
:1015340080253C002D030097802636032E43074A5E
:10154400FBE63500ADE700263400F8E7002601226B
:101554003400F2E61E0400003E040000FF07000011
:10156400F0B585B000920193CB0F0D030293019B5C
:101574004C006D0A410F29435D001E036B0D9C4610
:10158400019B760ADD0F009B009A5B0F3343BE4E2E
:10159400640DC000D200B44523D11E001643039647
:1015A400039FBA4EA619002F0CD0029F0095AF429C
:1015B40000D0B5E1002E00D104E1002C00D0BAE245
:1015C4006446B8E001276F40029D0097BD4200D0F9
:1015D400AFE1002E00D1F5E0002CF1D00399080012
:1015E4002FE00126754000956546029F009E651B0D
:1015F400B74200D02EE1002D00DC76E06746002FD4
:1016040021D11F00174300D122E16F1E012D15D1F6
:10161400821882428041C9184042091801241000EE
:101624000B0200D496E00224994B42080B4001219E
:1016340001400A43D807104359088BE0924EB54243
:1016440022D1914C86E0904EB44200D182E0002633
:10165400B4460136382D1ADC80262F003604334375
:101664001F2F31DC20251E00ED1BAE40B4461600B2
:101674000095FE4065462E43009DFB40AA40551E42
:10168400AA4116439C4602E00126382FE8DD3618AD
:101694008642804161444042091830000B0259D50A
:1016A4000026794B0134B4469C42BDD1794B2405C4
:1016B4001C4063461B031B0B1C43029B3000DB07CF
:1016C4001C43210005B0F0BD3D001E00203DEE404E
:1016D4000025202F03D04035ED1BAB401D001543E2
:1016E4006B1E9D4100232E43CCE7002D6AD0654636
:1016F4002D1B002C1ED000240126382D12DC802442
:10170400240421431F2D4BDC20240F000600641BFE
:10171400A040A740EE4037430600E940701E8641D2
:101724000C003E43B01890429241E4185242A11872
:101734006446B3E72C000D00054329D0651E012C37
:1017440023D1801890429241C918524289180B0241
:1017540000D568E7430709D00F230340042B05D0C5
:10176400031D834280414042091818000B0200D433
:10177400E4E10026444B0134B4469C4296D0444BE9
:10178400C0080B405E070643CDE13F4EB44202D190
:1017940019001000DEE7382DB4DD00240126C1E76E
:1017A4002C000E00203CE64034000026202D03D0FF
:1017B4004036761BB1400E000643711E8E4126430F
:1017C4000024AFE7344E651C354233D10D00054388
:1017D400002C11D1002DDBD01D001543BAD0821886
:1017E40082428041C9184042091810000B02B1D549
:1017F400274B01341940ADE7002D00D19BE11C00BB
:101804001443002C00D11CE74C07C008204380245B
:10181400C9082403214208D0DD08254205D1290046
:101824005B07D0081843009B0293CB00410F194378
:10183400C00006E7144CA54200D196E1821882420A
:101844008041CB1840421B18D8075208104359084E
:101854002C007FE7002D76DD6646002E2ED11F007A
:101864001743F5D06F1E012D18D1821A9042804182
:10187400C91A4042091A012410000B0200D469E776
:10188400490206004D0A02E1FF07000001F8FFFFCC
:10189400FFFF7FFF0000F07FFE070000B74EB54258
:1018A40000D1CEE60126382F15DD861B6346B042F3
:1018B4008041C91A4042091A3000DEE7AF4EB442F3
:1018C40000D147E70026B4460136382DEDDC8026EA
:1018D4002F00360433431F2F11DC20251E00ED1B7F
:1018E400AE40B44616000095FE4065462E43009D6A
:1018F400FB40AA40551EAA4116439C46D5E73D002D
:101904001E00203DEE400025202F03D04035ED1B66
:10191400AB401D0015436B1E9D4100232E43ECE795
:10192400002E67D0002C25D019001000934C02958E
:1019340010E7002E5ED0002C1FD003998F4C0800B6
:10194400009B029306E7002D54D065462D1B002C06
:101954001FD1009C02942C000D00054300D117E711
:10196400651E012C0CD1101A82429241591A52421E
:10197400891A82E702956446EEE7009C0294FAE72E
:101984007E4EB44200D103E7382D09DD0021012643
:1019940014E0382D2BDC802424042143009C029481
:1019A4001F2D13DC20240F00641B0600A040A74059
:1019B400EE40441EA041E9403E430643901B824250
:1019C4009241591A52426446891A56E72C000E0075
:1019D400203CE6400024202D03D04034641BA14069
:1019E4000C000443611E8C4100212643E6E7009964
:1019F4000291CBE7624E651C354238D11D00154378
:101A0400AC460D000543002C25D1002D08D16146BC
:101A140026000294002900D148E6190010008FE73F
:101A24006546002D00D195E6861AB042BF41CD1A15
:101A34007F42ED1B2F0206D5101A82429241591A99
:101A44005242891A7CE733002B439C4600D18FE035
:101A5400290030007EE6002D07D1614600297AD0A6
:101A64001900009B10000293EBE56446C9E6861A50
:101A7400B042BF41CD1A7F42ED1B2F0228D5161A62
:101A8400B24292415B1A52429D1A009B0293002D6E
:101A940026D02800FEF72AFC0300083B2022310050
:101AA400D21A9D40D140294335009D409C423DDCE3
:101AB4001A1B0132202308009B1A2C009D409840D9
:101AC400D4406B1E9D41D14020432843002441E66D
:101AD40033002B439C46DAD11E001C000293E5E53B
:101AE4003000FEF703FC030018331F2BD6DD310052
:101AF400083881409C4212DC1B1B5A1C1F2AD9DD6A
:101B04000C001F3BDC402800202A03D040239B1AF2
:101B140099400800431E984100212043D6E7E41A67
:101B2400184B0B405E07DB089C46BFE5E41A154BD7
:101B3400280019400EE61900100082E54B07C00882
:101B440003439C460D4B6646C9089C4213D10E4381
:101B540004D1B446AAE502918021090380231B0322
:101B64000B436646054C9C46A0E50026034CF0E773
:101B7400260002949AE58C4698E5C046FF070000CB
:101B8400FE070000FFFF7FFF0B0070B5114E0C0332
:101B940049000200240B0020490DDD0FB14204DD91
:101BA4000D48814202DD0D4BE81870BD80204003D2
:101BB40020430B4C641A1F2C08DC0A4EE24089199E
:101BC40088401043002DF0D04042EEE7064B5B1AEC
:101BD400D840F7E7FE0300001D040000FFFFFF7F6D
:101BE40033040000EDFBFFFF1304000070B5030095
:101BF40002000600051E11D0C21785185540C40FF7
:101C04002800FEF773FB0D4A121A0A280FDC0B2377
:101C14002E001B1A1530DE40854023003603360B98
:101C240012053243DB071A432800110070BD0B383C
:101C3400854023002E000025F0E7C0461E04000066
:101C4400FE2270B54400240E4302611C5D0AC60FD7
:101C540011420DD0E0229200A4181B0B6D071B0348
:101C64001B0B2405F6071C4334432800210070BDD8
:101C7400002C18D12300002DF1D02800FEF736FBEC
:101C84000A280ADC0B232A001B1ADA40130002007C
:101C940015329540094C241AE1E703000B3B9D40A3
:101CA4002B002500F6E7002D06D01A0B80231B031A
:101CB4006D071343024CD2E72B00FBE789030000B6
:101CC400FF070000D0400B00D1409C46203AD3408F
:101CD40018435242634693401843704791400300AF
:101CE40090409C46203A9340194352426346D34065
:101CF4001943704710B5002903D1FEF7F7FA2030D5
:101D040002E00800FEF7F2FA10BDC046F7B5040C75
:101D14000D0091B20F0061438C460600019383B21B
:101D2400100C5F43444358433B0C60441B189942D6
:101D340002D9802149026418019955437143180C52
:101D440004191B04BFB24919D819091903B0F0BD0D
:101D540010B5002802D0FEF7E7FA013010BDF0B547
:101D640006000F0015001C0085B08B4263D801D11A
:101D7400824260D821002800FFF7BCFF39000090A0
:101D84003000FFF7B7FF009B21001B1A1A00280040
:101D94000393FFF7A3FF00900191B94245D801D105
:101DA400B04242D8009B019C01200021039AF61AFC
:101DB400A741FFF793FF04000D00039B002B2BD0DA
:101DC400019B009ADB0750081843019B5908039BA9
:101DD4009C46B9422CD801D1B04229D832003B00EC
:101DE400121A8B41012692185B410027B6185F41F5
:101DF40001235B429C446346002BEAD13000390046
:101E0400039AFFF75FFF039AA4197D4106000F00B0
:101E1400FFF764FF241A8D410A9B002B01D01E603A
:101E24005F602000290005B0F0BD00240025C4E750
:101E3400B6197F41DCE700240025EDE7F7B517006C
:101E44001E0004000D0000F0D6F802000B00009004
:101E5400019138003100FFF759FF241A8D41089B86
:101E6400009801991C605D6003B0F0BD70B54A0232
:101E7400440245004E00C30F640A01202D0E520A8D
:101E8400360EC90FFF2D02D0FF2E07D170BDFF2ED5
:101E9400FCD12243FAD14B401800F7E70120B542A8
:101EA400F4D19442F2D18B4205D0002DEED1200022
:101EB400431E9841EAE70020E8E730B54A024402AD
:101EC4004500C30F4800640A2D0E520A000EC90FC4
:101ED400FF2D0ED1002C38D1FF2804D00120002B77
:101EE40006D0023804E0002A2FD110008B42F5D12D
:101EF40030BDFF280BD1002A27D1002D01D1002CA1
:101F04001FD08B42EAD1002B1DD01800F0E7002D22
:101F14000ED00028E2D08B42E0D18542DEDCF2DB39
:101F24009442DBD800209442E2D28342EDD10AE00D
:101F34000028E4D1002A02D1002CD9D0CEE7002C0D
:101F440006D1081ED4D1012000E002204042CFE790
:101F54008B42E5D0C2E730B54A0244024500C30FC4
:101F64004800640A2D0E520A000EC90FFF2D0FD12E
:101F7400002C3BD1FF2804D00120002B07D00238CD
:101F840005E00220002A02D110008B42F4D130BDBA
:101F9400FF280CD1FD38002AF9D1002D01D1002CE5
:101FA4001FD08B42E8D1002B1DD01800EFE7002D85
:101FB4000ED00028E0D08B42DED18542DCDCF2DB9F
:101FC4009442D9D800209442E1D28342EDD10AE070
:101FD4000028E4D1002A02D1002CD8D0CCE7002C70
:101FE40006D1081ED3D101204042D0E70220CEE71B
:101FF4008B42E5D0C0E7F0B504000D0010001900D5
:1020040085B0002D11DB002B00DA82E026002F00C2
:1020140014001D00BD4204D800D080E0B44200D8B2
:102024007DE00020002105B0F0BD00236242AB41F9
:10203400002968DB16001F0004000D00BD4278D89B
:1020440001D1B44275D801235B42290020000393D7
:10205400FFF750FE390002903000FFF74BFE029B61
:1020640029001B1A1A0020000293FFF737FE040010
:102074000D00B94255D801D1B04252D801200021F7
:10208400029AFFF72BFE361BAF4100900191029B91
:10209400002B2CD0EB0760081843029B69089C4670
:1020A40001240025B94241D801D1B0423ED83200C2
:1020B4003B00121A8B4192185B4112196B411600B6
:1020C4001F0001235B429C446346002BEAD1009C21
:1020D400019D029A30003900FFF7F4FD029AFFF7E0
:1020E400FDFDA4197D41241A8D41009401950098A9
:1020F4000199039B002B00D195E703000C000021FC
:102104005842A1418FE716001F00002544428D412B
:1021140080E726002F00002544428D418EE70023EE
:1021240093E70022002300920193B0E7B6197F41A0
:10213400C7E700200021E0E702780B78002A03D0EB
:10214400013001319A42F7D0D01A70470023C25CA3
:102154000133002AFBD1581E704703000A7801316D
:102164001A700133002AF9D17047000013B56B4689
:10217400DA1DE12311705B0198420BDA084C01006F
:102184000123200005F08CF8011E02D0054805F05B
:10219400DEF813BD044BC11801230448F2E7C0461E
:1021A400C0870008848D0008E0E3FFFFAC870008C7
:1021B400E12313B55B01019198420CDA094C01004B
:1021C4000423200001AA05F06BF8011E02D0064882
:1021D40005F0BDF813BD054B01AAC118042304483A
:1021E400F1E7C046C0870008848D0008E0E3FFFFE4
:1021F400AC870008E12313B55B01010001AC094879
:10220400994202DB084B0948C9180123220005F052
:1022140042F8011E02D0064805F099F80020205625
:1022240016BDC046C0870008E0E3FFFFAC87000886
:10223400A18D00081FB5E12301005B010848994204
:1022440002DB084B0848C91810236A4605F023F836
:10225400011E02D0054805F07AF8009805B000BDCB
:10226400C0870008E0E3FFFFAC870008A18D0008E9
:10227400F8B5040008000D00FFF768FF2A00070006
:102284002168074805F063F80026BE4200DBF8BD6C
:10229400A95DA36820005B6898470136F5E7C0464E
:1022A400E18D000880220021F0B5204D204F04006C
:1022B40087B028009200396006F0AEF8022C06D8E8
:1022C4001C4BA400E35801931B4BE358029304AB4B
:1022D4009C1D210001225242D317184802F0A6FE89
:1022E400002804D13B682288EA5401333B6028006B
:1022F400FFF72CFF04000198FFF728FF03900298D2
:10230400FFF724FF039B261AE11A01986918AE19F6
:10231400FFF712FF002805D031000298FFF70CFFE9
:102324000028D4D1280007B0F0BDC04644060020E0
:1023340078030020D4890008C88900084C020020D2
:1023440070B50E001500074C0200C821200004F0EF
:10235400EBF930002100FFF78BFF2800FFF7A2FF05
:1023640070BDC0464405002007B583681B68002B78
:1023740018D06A46911D9847011E0CD16946002267
:1023840000230A48063102F003FE002802D0084860
:1023940004F0DDFF07BD03000B33FBD0054804F058
:1023A400D6FFF7E758214942F8E7C0464C0200201F
:1023B400FA8D0008218E000810B503000A000348B6
:1023C40081680C691900A04710BDC046D487000875
:1023D4000023F7B50500214F01913B60012229003C
:1023E4001F48FFF7ADFF1F4E04000100300004F04A
:1023F400AEFFFA200021800004F0A3FF2000FFF7C5
:10240400A5FE063818492018FFF796FE0028E5D0E7
:10241400012229001548FFF793FF0100300004F062
:1024240096FF0021124804F08CFF01222900114874
:10243400FFF786FF04000100300004F088FF00214C
:102444000B4804F07EFF2000019900F0CBF8002136
:10245400094804F076FF01233B60F7BD7C030020AC
:10246400658E0008C98F0008448E00088E8E00080F
:1024740010270000B68E000830750000F0B597B044
:1024840000F040F9099036483A21836810ADDB68C2
:1024940098470D200AA9FFF78FFF0E200CA9FFF71C
:1024A4008BFF10200EA9FFF787FF0A9B0B982D497D
:1024B40006931093FDF74CFE0C9E2A490790686022
:1024C400AE600D98FDF744FE0E9F26490890E86023
:1024D4002F610F98FDF73CFE03000024686103930D
:1024E400089B2148069A099901930494079B029733
:1024F400009604F02CFF20000999FFF759FE3220C2
:10250400002104F01EFFA300E956201DFFF72EFE54
:1025140001343220002104F014FF062CF3D10020F2
:10252400FFF788FE114D0100280004F010FF32204F
:10253400002104F006FF023C2000FFF75BFE0100CF
:10254400280004F004FF01343220002104F0F9FED5
:102554000A2CF1D10A20002104F0F3FE17B0F0BDDB
:10256400D487000810270000C88E0008E88E0008F1
:1025740070B5164C200005F0CFFD051E20D0A368D1
:10258400002B06D09B6C002B03D0002220001049A6
:102594009847A3689B6A002B01D0200098470D4BF5
:1025A4000D4D1B68002B03D129002000FFF710FFFD
:1025B4002800FFF763FF0021084804F0C2FEEEE79D
:1025C400074804F0C4FE280070BDC04648870008D0
:1025D4006D2300087C03002098870008C0270900A9
:1025E400ED8E0008F0B50400A9B00E003E482100AD
:1025F40004F0ADFE2422002113A805F00DFF0C23E6
:1026040015930B3B16930933179371331893783B47
:10261400199308AB04930BAB03930AAB029309AB76
:10262400019316AB20003149009307AA06AB04F0CE
:10263400D1F82F4B1CAA190031C931C231C931C29A
:1026440031C931C231C931C20CAD2A00303313CB88
:1026540013C213CB13C21B6826481360089B06AA37
:1026640003930B9B07A902930A9B00240193099BE4
:102674000093169B04F06BFE6B467022A7009B1818
:10268400D95906A8FFF758FD00281CD117941A4AF7
:10269400089B0B999B181893099B184815930A9B40
:1026A4001391149304F053FE13A803F047FB144B47
:1026B4000100180004F04BFEB36830001B6813A936
:1026C400984729B0F0BD062C09DCE95907A8FFF7A3
:1026D40033FD002801D11994D9E70134CCE7013442
:1026E4000C2CC9D1D3E7C046048F0008178F00080B
:1026F40058890008528F000894F8FFFFA08F000843
:10270400B38F000830B58BB004002422002101A847
:1027140005F082FE0C2303930B3B049309330593CA
:1027240071330693A36820005B6801A9984701A848
:1027340003F042FC04000D00431C0AD14B1C08D1D9
:102744000024064804F003FE2500200029000BB0F5
:1027540030BD034804F0FBFDF7E7C046CC8F00080A
:10276400F28F000810B5024B1B68984710BDC04695
:1027740000010020014B18607047C0460001002092
:1027840030B585B004000D0010220021684605F024
:1027940043FE6A4602239370044B2A0021006846D4
:1027A400019304F0E1F805B030BDC0466927000884
:1027B400F7B504000D001E00019203F04BF803006E
:1027C40005F014FF054F32003B5001992800A04743
:1027D40005F00CFF385800F0C1F9C04608000000AD
:1027E400024B034A00201A607047C046EC010020E7
:1027F40000127A00014910220A60704710ED00E0CF
:10280400BFF34F8F30BF62B6BFF36F8F7047C046C0
:1028140043B2000605D41F221A4001239340014A03
:102824001360704700E100E030B5FF2503220B0080
:10283400290040B20240D20091409B012B40C94381
:10284400934000280ADBC0240A4A800880008018CC
:10285400A40002590A401343035130BD0F22104013
:102864000838054A800880008018C269114019435D
:10287400C161F2E700E100E000ED00E030BFFDE7F8
:10288400084A0949936809689866D9668023074904
:102894005B05486803434B6062B6BFF36F8F936870
:1028A400D86E704704050020508D000800ED00E04C
:1028B40015498A6815481044EFF3098CF0C0434663
:1028C4004C4655465E466746F8C072B6104F114EE8
:1028D4004A698A603E60104C141920680F4C2060CD
:1028E400906E00239366002800D162B6074C10193D
:1028F4001030F8C89846A146AA46B346BC462438C8
:10290400F0C88CF3098870470405002030000000EB
:1029140004ED00E0000000086400000080030020D3
:1029240004207146014202D0EFF3098001D1EFF394
:1029340008808169023909780229FFD001B504F0C1
:10294400E8FE01BD10B5203A1360029B01245360D8
:10295400039B06499360049BA143D36080235B04DB
:10296400D361002391610265836610BDB527000819
:10297400074B9860074B406E1860101C81F3098860
:10298400002162B6BFF36F8F00220023FFF710FF10
:10299400040500208003002001B5EFF305800549FC
:1029A400401AC0000449014409C9984709BC9E461D
:1029B4000249084710000000108800082D2A00086A
:1029C400F0B5144B144C85B0070018190391013865
:1029D40021000193FDF776FB104E114D444370190D
:1029E40029000138FDF76EFB45432B190293029A27
:1029F400039B0C499D1A2800019A05F004FD28192F
:102A04003200002105F008FD0298083D08307D667B
:102A140005B0F0BD0000000001000000220000002D
:102A24000400000058890008044B996858698842DA
:102A340002D00349034A0A607047000004050020DD
:102A440004ED00E00000001070B5224B0C005B6840
:102A540088B0DB05DB0D62B6BFF36F8F0025160E61
:102A64002900FF2E09D1F33E1640082E05D001009F
:102A74000135120701D5210000250024032B14D1B0
:102A84008B69154A934202D3144A934206D3144ADB
:102A94000024934209D3134A934206D2023B1A8874
:102AA400114B00249A4200D10C682022684605F09C
:102AB400AAFC079B002D0AD0DA0502D10B4A134366
:102AC40007936946200004F020FE08B070BD5B0A3D
:102AD4005B02F5E700ED00E0B4000008FC850008A7
:102AE400000000200000002002DF0000FF010000C1
:102AF400EFF30880EFF3098101B57246FFF7A4FFF5
:102B040001BDC046F0B5C02400220326FF25A40061
:102B140010002F003040C0008740054993089B00F7
:102B24005B1819590132B94319511D2AF0D1F0BD6E
:102B340000E100E072B607480749401880F30988AD
:102B4400EFF314800221084380F31488BFF36F8FDE
:102B540004F0F1FD600800200002000010B50A4BEB
:102B64009B6883420DD1EFF30583002B09D08022AB
:102B7400064B520559680A435A605A6A04490A4086
:102B84005A6202F06DFE10BD0405002000ED00E065
:102B9400FF7FFFFF10B5024B1B689847002010BD54
:102BA40084030020034B044A1860022391780B43EA
:102BB400937070478403002004010020072310B59C
:102BC4000449054A99430548521A04F060FD00205F
:102BD40010BDC046D70F002000200020C40F0020E5
:102BE40010B5024802F0EEFA10BDC04614010020F0
:102BF40070B5050001225242D3170A4802F06AFA5E
:102C04002A000821084804F0DEFC041E06D1002D29
:102C140004D005F0EBFC0C22044B1A50FFF7E0FF44
:102C2400200070BD14010020C40F00200C0000001F
:102C340010B5040001225242D317054802F04AFAA3
:102C44002100044804F084FCFFF7CAFF10BDC0460D
:102C540014010020C40F002070B5050000240126D3
:102C6400287800191F280FDC3300834009494A697A
:102C74001A40934208D14B61074BC100CA58002A3D
:102C840002D05B185968904701346B78E4B2A342D0
:102C9400E6D270BD00040140880300200022052014
:102CA40010B50C4C110020706070FFF7BDFD0022C0
:102CB40006201100A070E070FFF7B6FD0C2207217A
:102CC400054805F0A9FB002207201100FFF7ACFD21
:102CD400002010BD040200200802002010B5064B9D
:102CE400020018560123934004490C6823430B60E7
:102CF400FFF78EFD10BDC046040200200004014011
:102D04001F2805DC0122824002490B6893430B60B3
:102D14007047C0460004014010B5040008000329B0
:102D24000CD80123104AFDF7C3F9020A0E16A3407A
:102D3400916899439160D1689943D16010BDA340D3
:102D440091681943F6E7A340D1681943D1609168AB
:102D540099439160F2E7A340916819439160D16867
:102D64000B43D360EAE7C0460004014030B5094B89
:102D7400C000C4588C4203D11D186D68954204D01C
:102D8400002C04D119501B185A60002030BD1020AB
:102D94004042FBE7880300200022034BC000C250DE
:102DA4001B185A607047C04688030020836810B51A
:102DB400DB0715D5042483680A49234207D010236E
:102DC40082680A401343836083682342FCD1022350
:102DD40082680A4013438360012382681A42FCD14B
:102DE40010BDC046E8FFFF7FF7B50369456801934E
:102DF4000B79DB06DB0E132B14D84E88002E14D06F
:102E0400204B9E4232D0204A2F000023944618378C
:102E140064465A00BA5A224392B2964206D001330B
:102E2400082BF5D1162040421FE033002822AA5671
:102E3400002A06D00022019CA634A256551C17D1A4
:102E440023700A799206EDD40A78082AEAD14A78DE
:102E5400042AE7D141680A002832127852B2012AC2
:102E640009D002239A43DDD10020FEBD0723DDE70C
:102E74009A42E6D0D6E7072009684A698243134399
:102E84004B61F1E7FF3F000000C0FFFF0368054A04
:102E94009968114018320A439A609A68002AFCDB48
:102EA4007047C046E8FFFF7F0200030094321268B7
:102EB40098331A60903003685B681968034B8A681A
:102EC4001A40042313438B607047C046E8FFFF7F1A
:102ED400F8B50125836804002B4201D00020F8BD19
:102EE4000A26056083680B4F3B402B4383602368AD
:102EF4002B42F3D1A3682B4203D1A3683B402B435D
:102F0400A3606420013E01F0ADFE002EEFD17420D9
:102F14004042E4E7E8FFFF7FF0B503698BB040333C
:102F240004000F00079301225242D317079802F0BE
:102F3400A5F9636826691B68BA6803933300943360
:102F44001A607D68DD602800FDF752FA3300002224
:102F5400A43318705A70854B013D9D420AD801284C
:102F640008DC61682C200D00303508560495824237
:102F740003DB18D11624644280E0049D9300EB58CF
:102F84003D7CAC46DD0CAC4500D07DE007205A0BFF
:102F9400024004921A0C0240DD040592DAB2ED0EEE
:102FA400FF2A00D072E03300A0331B680493049B13
:102FB400002B00D085E03300A4331B783A685B0013
:102FC400002A02D0928901325343FA689A4200D20D
:102FD400C7E07B7C002B00D0C5E0BB7C002B05D078
:102FE4000398FFF7E3FE6068FFF750FF0398FFF7CD
:102FF4006FFF1023039A1360042352681343039A48
:10300400536033003A00643313CA13C3002403CA61
:1030140003C334663B68A34200D19EE03200783299
:1030240023CB23C21B6835001360330078337366E7
:103034001C82B36F0835A34200D18EE0210030001A
:1030440005F0CDF9210063220023B06F80185941A7
:1030540064220023FDF7ACF900220090002328002D
:10306400019102F023FE300001225242D317503066
:1030740002F004F9002800D03066346E079802F09C
:10308400DBF820000BB0F0BD013270E70868DBB25A
:103094000693C3181B68049AEB401340059A9A429E
:1030A40000D180E7FFF782FE04996368A9401A689B
:1030B400069BD21813688B430599A9400B431360F0
:1030C40071E70498FEF744FE0138C3B20593012367
:1030D400059A6568934006939306069A1A432B68EB
:1030E400099208932B0029331B78059A5BB29A4204
:1030F40012D10898FFF75AFEC0201D4A0004136835
:10310400116803401B4801400B43802109040B4311
:1031140013600A2005F001F92A23059AEB569A4216
:1031240012D10898FFF742FEC020114A0004136828
:10313400116803400F4801400B438021C9030B432E
:1031440013600A2005F0E9F8099B039A5B035B0B03
:103154009362049B069A934328E73000FFF7A4FE8A
:1031640081E70C2407E7862405E7C046FEFF0F002D
:1031740008270140FFFF3FFFF7B5046943682500B6
:103184001B6894351A6C2B68991C29601A802200DC
:103194002100A5321378A4310133DBB2137009780E
:1031A40099422BD100231370636E002B2ED026007E
:1031B400E36F88363288002B06D0210064319847AB
:1031C40001280AD002281AD02200843233881288B7
:1031D4009A4214D90133338003E0230098331B68E7
:1031E4002B60A36F002B03D12000FFF75DFE05E0E9
:1031F4000121200005F0E6F80128F5DCF7BDA36FF6
:10320400002B03D02000083005F0B6F823009033DB
:103214001B685F681B693A68A0331D680192002D22
:1032240007D10198FFF754FE2000503002F004F853
:10323400E4E72800FEF78CFD3B0029331B780138B6
:10324400C6B25BB2B3420CD10198FFF7AFFD802048
:103254000F4AC0031368116803400E4801400B4332
:1032640013603B002A331B785BB29E420CD1019859
:10327400FFF79CFD8020064A000413681168034090
:10328400044801400B4313600123B3409D43C6E748
:1032940008270140FFFF3FFFF0B5456887B02B6862
:1032A400040007690193294B1800009304F034FFCC
:1032B400002847D03B00FF2290331C609A75666853
:1032C40000983368B1680293009B9B6803931B6862
:1032D4009847002807D1029B32691B699B009B0811
:1032E4001343029A13610021686905AA04F0FCFBE8
:1032F400002825DB059B00221979186800F0E4FCFE
:1033040000281DDB0198FFF751FD6068FFF7BEFD43
:1033140063689968039BDB68002B02D00B4805AAFD
:1033240098470198FFF7D4FD002809DB6B6898479C
:10333400BB6C002B03D13800403001F07DFF00202E
:1033440007B0F0BD13204042FAE7C046BC8600082F
:103354000B681A00143A082A07D80020044A49685E
:103364009B181A680A431A60704786204042FBE79C
:10337400001002400B681A00143A082A07D80020EB
:10338400044A49689B181A688A431A607047862061
:103394004042FBE7001002400B681A00143A082A66
:1033A40008D8084A48689B181B6898434342584108
:1033B4000130704702208342FBD0063B8342F8D998
:1033C4000138F6E70010024010B5164B08681400E7
:1033D4001B68072812D008280AD800280ED0013804
:1033E40007280BD8FCF764FE1A0D1A0A0A0F0A12F2
:1033F400182808D01C2806D0142804D0862040425F
:1034040003E080231B020020236010BD00F0E2F8DB
:10341400002805D000F0DEF80300F4E70023F2E70B
:103424000520ECE7EC01002070B500F0D7F801F0BE
:1034340085FB404C404A6368404E1B061B0FD35C1F
:10344400D8400500B04202D83D4801F0EFFB80238C
:103454002268DB0213432360802322685B02134348
:10346400236080239B0222681A42FCD08021354BC2
:1034740049001A680A431A601A680A42FCD01822E2
:10348400216A9143103A0A4322620122216A0A43C3
:1034940002212262226A0A42FCD01A682A480240A7
:1034A4001A600C2263681340082B16D123680B4260
:1034B40007D10123226813432360022322681A429E
:1034C400FCD003226368934363600C2362681A424E
:1034D400FCD1F02263689343636023681B4A134062
:1034E400236000F065F8802322685B0413432360A3
:1034F40080239B0422681A42FCD0F0226368934321
:103504006360032362689A43013B13430C226360A4
:1035140063681340082BFBD1B54202D9084801F077
:1035240085FB0B4B064A00201A606368094A134066
:10353400636070BD0010024084910008FF6BDC02E0
:10354400006CDC0200700040FFFEFFFFFFFFFFFE87
:10355400EC010020FFF8FFFFF0B50B68022B02D04E
:10356400063B022B1FD84B68FF2B1AD0FF221C00EE
:1035740007261F270D4814402418580B1B0A3B40EC
:1035840030409840256885432560496807480A40CB
:103594000B0C090A334039408B401218106803435E
:1035A40013600020F0BD86204042FBE7001002407B
:1035B400064B074A59681140882252030A430F21D7
:1035C4005A60DA6A8A43DA627047C04600100240E1
:1035D400FFFFC2FF00487047006CDC0280210A4BE9
:1035E4004905DA6982B00A43DA61DA690A400121DD
:1035F4000192019A9A690A439A619B690B4000936C
:10360400009B02B07047C0460010024010B5084845
:1036140004F082FD002808D0064C2000FFF7C2FA0F
:103624002000FFF7A7F8002010BD13204042FBE75D
:10363400348700083D36000870B50400074D0A2899
:1036440004D1AB680D2128005B689847AB6828005B
:103654005B68E1B29847200070BDC046348700081B
:1036640070B5036904005860094D280004F054FD46
:10367400002809D06168AB6828001B680C319847A2
:10368400002800DD002070BD13204042FBE7C04647
:10369400BC860008F8B51D0080230C0046681100A4
:1036A4009B03026999421BD1A210284903230232C9
:1036B400920052580F2123409B0099400A40DA405F
:1036C4001300B2689A4209D12000FFF719FB2000C9
:1036D400FFF762FB00212000FFF71EFB0020F8BD6E
:1036E4008023DB0399422CD020001949FFF73EFBCD
:1036F400002829D121000F27033001408900B66832
:103704008F408E40114AA3109B009B189A68012198
:10371400BA4332439A608023DB049D420AD0C0231B
:103724000100DB049D4205D0FE231B06ED186B420D
:103734005D4169002000FFF7EFFA2000FFF7CEFAA1
:10374400CCE786204042CAE71020FBE70000014096
:1037540053790008F0B506694068254DC06844688F
:10376400E40106D542684B682A401B0413434360B6
:10377400F0BD346A1F4FE4072FD580244668240126
:103784003E40344344604468A40AA4022343436093
:103794000B7A9B0727D4002A25D013785B0722D401
:1037A400802342685B04134343604368124A134016
:1037B40043604368114A1340059A134343604268C7
:1037C4004B682A401B0413434360012302681343DC
:1037D4000360802342689B01C8E744685B003C4067
:1037E40044604468D0E74368054A1340DCE7C046B8
:1037F400FFFF00FFFFF7FFFFFFFFFFFDFFFBFFFFE2
:10380400FFFFFFFE802210B543689200DB68046965
:103814009969114207D0D9690A43DA610123A36285
:1038240004F0F0F810BD80229969520011422DD1A4
:10383400A26B002A11D09A69920702D5E26B127822
:103844009A629A69520702D5E26B596A1170E26B67
:103854000132E263A26B013AA26310229969114218
:103864001AD199699218114221D19A69520602D447
:103874009A691206D6D5626B127A920711D44068FF
:1038840004F0A6F8200001F0D7FCCBE7D9690A437D
:10389400DA6101232363C3E7D9690A43DA610122A8
:1038A400E26280225968D2010A435A60BAE7D969B0
:1038B4000A43DA615A6802490A405A60B0E7C046CE
:1038C400FFFFFFFEF0B5446889B0E368056906931D
:1038D400E3690020019308230A279C460791019B72
:1038E400834246D12B6A1B075B0F012B00D16EE08C
:1038F400022B00D079E03E4B029396239B00049365
:10390400643B03937823FF3302240593611E0798D5
:10391400FCF7D8FB01003748FCF7D4FB0100060094
:103924000498FCF7CFFB431E0193FF2B59D83100B9
:103934000298FCF7C7FB471EFF2F52D831000598A9
:10394400FCF7C0FB05000F284BD831000398FCF7A7
:10395400B9FB01380F2844D8023C2D04019B2407ED
:103964003D432C4300051B0204431C43069B1C617E
:103974001EE00C234343A1691F4EC9184A6806235D
:10398400B24209D017D81D4E043BB24204D01C4B9E
:10399400D3185A4253419B002A6A53401B075B0FBA
:1039A40013D10B68079A93420FD18B68069A13615F
:1039B400002009B0F0BD134E6346B242ECD0124E63
:1039C4003B00B242E8D00023E6E7013087E70F4B23
:1039D4000293FA231B0104930D4B0393FA235B0018
:1039E40092E70134112C00D090E716204042E0E722
:1039F4001405000000CA9A3B40420F00A086010053
:103A040080E5F9FF40E13300404B4C005C120000BC
:103A1400E2040000F0B58DB00993DBB203930623F2
:103A2400079112A9050001C908920988069004911A
:103A3400039904A8994319331B1819700292089822
:103A440007A9039B069AFF2807D9FF2302224B608C
:103A54000B7A04A893431D32121868680126C768BC
:103A640048682C69844607980B72059001201E4013
:103A7400034232D16346A363059B6062E3636163DF
:103A8400049B2800E66226630096FFF763FE6868DD
:103A940003F08CFF02233A6813433B6000232000A9
:103AA400344A01F0EBFB002809D0280003F0AAFFF8
:103AB40001225242D317200001F0E0FB0126A26A42
:103AC400E16A236B00293DD1002B35D1002A31D185
:103AD400002E3FD00520404249E06346A363059B86
:103AE4000026E3638023DB00616328006662A6622C
:103AF4002663E6620093049BFFF72CFE686803F0DC
:103B040055FF04233A6813433B6000232000194AFD
:103B140001F0B4FBB04209D0280003F073FF012286
:103B24005242D317200001F0A9FB0136236BA26A8D
:103B3400E16AC7E7A362CDE7002A00D0A1620023AF
:103B44002363C7E700218A4200D0A162E162002B0F
:103B5400F5D1BFE7089A029B9B1A0293079B9B1817
:103B64000793029B0893002B00D068E718000DB060
:103B7400F0BDC046881300000023F7B50500426875
:103B8400046917480F00D6685168019392688368E6
:103B9400DB68012A00D90831002B03D105256D42C9
:103BA4002800FEBD01AA98470028F7DB27621034DD
:103BB40001225242D317200001F060FB0122336836
:103BC4002800934333603368064A134033600199F5
:103BD400FFF778FE0500200001F02EFBE0E7C04669
:103BE400BC860008FFFFCFFFF7B5040046680569EF
:103BF400012200215242280004F0C3FA2000336855
:103C04009847012228001100103004F0BAFA284D18
:103C1400280004F081FA002848D0676800217869F8
:103C240001AA03F061FF00280CDB019B0022197933
:103C3400186800F049F8002804DBAB6828001B680A
:103C440079689847B368012B21D83369194906224A
:103C54008B4209D011D81849043A8B4204D0174A30
:103C64009B185A4253419A00102120001143FFF738
:103C740083FF002800DD0020FEBD114908228B428D
:103C8400F2D0104902328B42EED00022ECE7AB684E
:103C940071689B690831002B02D105204042EBE793
:103CA4000022280098470028CFDAF6E71320F5E72A
:103CB400BC86000840420F00A086010080E5F9FFA1
:103CC40040E13300404B4C00F7B504000025C90027
:103CD40043180193019B9C4201D1002034E01F272B
:103CE400102223681F40134216D120256268154311
:103CF400FF215A0A12010A405B09F0390B401343B1
:103D040000931109A02A20D8114B8900CE58002E07
:103D14000AD11320404217E0102F03D0112FE7D10E
:103D24006568E5E73025E3E7300004F0F5F900289D
:103D3400EFD00F2300992A00194030003B0003F014
:103D440020FE08340028C5DAFEBD1620E2E7C0468E
:103D5400808B000870B5140005690E2911D0102954
:103D640024D00D2931D1686A5731FCF7F1F920606C
:103D74006421686AFCF736FA154B594300206160E8
:103D840070BDFA21A86A8900000AFCF79BF9FA21A0
:103D94002060AD6A8900280AFCF7D0F9FA23EDB255
:103DA4009B0059436B431B0AC918E7E72B003433C4
:103DB4001B78602B09D1EB6A06499B0A1360EB6AF6
:103DC4009B059B0D5943890AD8E786204042D7E7D3
:103DD4001027000040420F00F0B58FB004000769BF
:103DE40003F0D6FE002800DAE9E03B0034331A7809
:103DF4000823602A00D0023BF72160680CAA03F074
:103E0400C2FE002800DADAE00CAB1B780CAA079398
:103E14000CAB5B78398808930CAB9B7809930CAB9B
:103E2400DB7812791B03120113430CAA527912098D
:103E34001A431B095B1A5B434900D210521A022031
:103E4400395E1B134A430420395ED2124B439B1341
:103E5400D31802933B630523029A534380331B1206
:103E64007B621300754A9C18E31722001900200096
:103E74000B93FDF74BFF069105901022BB5E009358
:103E84000E22BB5E03930C22BB5E22000A9308231E
:103E9400F85EE317C117FDF739FF030D0E031E4348
:103EA40005030A23F85E059A069BC117FDF72EFF4A
:103EB4000B06020A1A430B12802152197341002087
:103EC400090280185941FA880023FDF71FFF4B109F
:103ED4001A00CE1732430493131E69D0009B009836
:103EE400059AD917069BFDF711FF039B220000904A
:103EF40001910398D9170B9BFDF708FFC40B4B04E2
:103F040023434204009C019DA4185D41089B009436
:103F140001951A01099B1B091A43079B1B031A43AA
:103F240080235B039B1ADA17944664465A08E10718
:103F3400114300220A9CD807E300009C019D12193A
:103F44006B41801A994100233D4AFDF7DFFE33009F
:103F5400049AFCF709FACB0401910090440B1C432A
:103F64001623F85E4D1322002B00C117FDF7CEFE79
:103F740022002B00FDF7CAFECB01440E1C434D1654
:103F8400009A019BA4185D411423F85E009A019BDA
:103F9400C117FDF7BBFE4E03C20CCB143243A41869
:103FA4005D412B06220A1A431223F95E0B019B186A
:103FB400BB623B0034331B78602B02D000200FB06F
:103FC400F0BD204A1E20395E94460CAAD288090509
:103FD40052BA92B2029B9203521A2020395E634471
:103FE4005943521A8021C90152188021387F09028D
:103FF4005843C0124018F91CC97FD21349B259431F
:104004008023891241439B038912C9181A203B5EFD
:104014004B43802189015B189B135343DA135243AA
:10402400397ED2114A4312119B1AC8225205934277
:1040340000DD13001B13FB62C0E7C046000CFEFF4B
:10404400350C000000D4FEFFF7B51500076944687D
:104054000C2900D07BE0E36801933B689B681889D6
:10406400FCF7E0FE061C3623F85EFCF7DBFE011CC1
:10407400301CFCF72DFC061C0198FCF7D3FE011C38
:10408400301CFCF743FB2368061C1888236918417D
:10409400FCF7C8FE011C301CFCF710FD237D061C38
:1040A400002B02D080231B06C618FA21019BA068AE
:1040B400890059430003FCF74BF8FCF7B3FE011CDD
:1040C400301CFCF723FB061C6068FCF7ABFE311CBC
:1040D400FCF7A8F9041CFDF7B3FD0F00CF2106007F
:1040E4000906201CFCF7DAF8002833D13000390027
:1040F400194A1A4BFCF7ACF800282BD1201CFCF70A
:1041040073FE0190FDF772FD02000B0030003900D0
:10411400FDF726FA0022124BFCF7F8FF0022114BA0
:1041240006000F00FCF780F8002813D13000390096
:10413400094A0A4BFCF78CF8041E0BD1019B300092
:1041440039002B60FDF720FD68602000FEBD86204D
:104154004042FBE72220FBE70000C0FFFFFFDF41F6
:1041640080842E410000E0C1F7B515004368026960
:104174001E294BD13621515E00294AD01A6858684D
:1041840012885043FBF7E4FFFCF74CFE2349FCF78D
:10419400BDFA041CFDF754FD0F00CF2106000906EB
:1041A400201CFCF77BF8002835D1300039001C4A6C
:1041B4001C4BFCF74DF800282DD1201CFCF714FEF5
:1041C4000190FDF713FD02000B0030003900FDF7EC
:1041D400C7F90022144BFCF799FF0022134B060089
:1041E4000F00FCF721F8002815D1300039000C4AE3
:1041F4000C4BFCF72DF8041E0DD1019B3000390047
:104204002B60FDF7C1FC68602000FEBD86204042A3
:10421400FBE73D20FBE72220F9E7C04600007A4493
:104224000000C0FFFFFFDF4180842E410000E0C199
:1042340037B50369456818680C008368E968DB686A
:10424400002B11D001AA984700280DDB2A680749E2
:10425400136860080B401360019B2100C018FBF732
:1042640031FF2D6880B2E86037BDC046FF7FFFFF95
:1042740010B541680868EFF31084012383F31088B4
:1042840082689A43826084F310880A68EFF310818D
:1042940083F31088034813680340136081F3108884
:1042A40010BDC046FFFEFFFFF0B50C000369416876
:1042B4005D68237985B0012B33D09A1E5642724132
:1042C40092026679013E771EBE4176030396A67973
:1042D400042E29D05E1EB3411B030193E679002707
:1042E4000296012E01D1C027BF000968A5421ED144
:1042F4000C68374E019B3440224313430B604B68D8
:10430400344A1340039A13434B60436832491A6892
:1043140093680B403B4393602968FFF789FF05B01E
:10432400F0BDC022D200CCE780235B01D5E7C023D7
:104334000E68DB001E40B24204D00E68274B1E40BC
:1043440016430E60C0264268039B1168B6014A6892
:1043540032409A4204D04A681E4E32401A434A60A0
:1043640080264268019B116876010A6832409342B4
:1043740004D00A681A4E324013430B60C0214368CC
:1043840089001A6893680B409F4204D093681249CD
:104394000B403B43936080224368D2011B689968B9
:1043A400114206D0029A032A09D09A680D490A409C
:1043B40004E00299032902D199680A439A602168AA
:1043C4002B689942ABD0FFF733FF23682B60A6E735
:1043D400FFE9FFFFFFCFFFFFFFFCFFFFFFF9FFFF38
:1043E400FFEFFFFFFFBFFFFFF7B50C000369456850
:1043F4005B6801930979A77901290AD16279531E6F
:10440400591E8B41C0215B03042F0CD186204042EE
:104414003AE002290FD1042FF8D06279531E591EB5
:104424008B4180215B03C900002B01D0032AEDD10D
:10443400002935D1EAE76279531E5E1EB3415B035E
:10444400042F22D10029E1D1002B01D0032ADDD190
:10445400E379002B08D0012B25D12B68134A934212
:1044640002D0134A9342D1D101272A68210013684C
:10447400BB431360FFF718FF00202B68019E1A68E6
:1044840017431F6006CC06C6FEBD002904D00339BD
:104494000129BBD90021C7E7002B01D0032AB5D1DC
:1044A400032FD5D0B2E7032BD7D0AFE700380140B4
:1044B40000440040F7B5050046680469544820608C
:1044C40003F02AFE002802D1132040429DE0206818
:1044D400F16883681B689847002800DA95E000219A
:1044E400F06901AA03F000FB002800DA8DE0019BCB
:1044F400002219791868FFF7E7FB002800DA84E046
:1045040001216C682B6922685F6813688B43136010
:10451400606803F001FE0028D6D06068A168836853
:10452400DB68002B00D098472268EFF31081012349
:1045340083F310880C2013680343136081F31088FD
:1045440039002800FFF7B0FE237D002B04D0082398
:10455400226891680B439360637D002B05D0802112
:104564002268090253680B435360A37D002B05D0D6
:1045740080212268490253680B435360E37D002B7A
:1045840005D080212268890253680B435360227E40
:104594002368002A25D01F4A934202D01E4A934220
:1045A40034D16B681D481A6880239168DB010B4382
:1045B40093602168637E0A685B05024013430B60C5
:1045C4002168A37E0A6816481B04024013430B604B
:1045D400E37E002B05D080212268090293680B43F7
:1045E40093600123226811680B43136080222368BF
:1045F4009203D9691142FCD08022D203D9691142B5
:10460400FCD02800336A98470020FEBD16205CE7E2
:10461400BC8600080038014000440040FFFF1FFC36
:10462400FFFFE0FFC02210B580240369D2005B685D
:10463400E4001B680B6043681B681B68134002227C
:10464400A34204D01A4A9B185A425341DAB20A715F
:10465400C022436892011B685C680323144200D1A2
:10466400023BC0244B714368E4001B681A681B6852
:104674002340D20418D55A4253410333C0228B71CC
:10468400436892001B689B6813400A4A9B185A426D
:104694005341DBB2CB71426812689268520400D570
:1046A40003230020CB7110BD5A4253410233E5E786
:1046B40000FAFFFF00FDFFFF30B50A4B0A4A986875
:1046C40019680A4D9C68C90301D4A04204D2116838
:1046D4002868091811601B682B681068C018001B33
:1046E40030BDC04610E000E0F0040020FC040020CF
:1046F4000020094A136A1B021B0A1362074B084A6B
:104704001A60084B1860084B5A60072298601968B1
:104714000A431A607047C04600ED00E0FC04002024
:10472400BF120000F004002010E000E070B5FFF7B5
:10473400C3FF0C4B0C4A186811680C4C40181060ED
:104744009621002225681A604901401BFBF7BAFC38
:1047540096235B0143435B19236001F0AFF9FEF735
:1047640063F970BDF0040020F8040020F404002074
:10477400F0B5334D334F85B0002956D0431C08D1D2
:1047840001222B6893432B60FF231B063B6005B07B
:10479400F0BD3B6801930026012804DD2A4B1E006E
:1047A400984200DC461EEFF3108372B60393FFF7C2
:1047B40083FF0022AB680293244B1C68244B04192A
:1047C4001A60244B1B680093E01A904233DB962353
:1047D4005B015E43204A801919008018FBF772FCC4
:1047E40096235B015843009B1B1B18188023DB0096
:1047F400984223D9194B984220D8002338600138B5
:10480400A9686860AB60029B02985B1A1A19884217
:1048140002D2019A9B181A190C4B1A60039B002BA5
:10482400B5D162B6BFF36F8FB1E73B680193431C08
:10483400B1D10548B6E78020C000DEE71800DCE708
:1048440010E000E0FC040020A60D0000F8040020A5
:10485400F0040020F4040020BF12000080E8FF00F0
:1048640070B5EFF3108572B6084A094B14681B68DB
:10487400E41AFFF721FF0019002D02D162B6BFF33D
:104884006F8F96214901FBF71DFC70BDF8040020D1
:10489400F404002070B5EFF3108572B6054B1C6864
:1048A400FFF70AFF2018002D02D162B6BFF36F8F05
:1048B40070BDC046F8040020F0B5F825FC26244C51
:1048C400244B206862681840234B6D0113402A4032
:1048D4001D0C2A43B6031D0435402A43E025DB02A0
:1048E400ED042B400A250F261343D2B217096F4358
:1048F4003240BA18D2B21F0A6432FFB24A613A098E
:104904006A433740D219013A0A611A0CD2B2170924
:104914006F431B0E013B8B61030D32406B43BA188E
:10492400CA60020C32409B188B60030ADBB21A097E
:104934006A433340D318C0B24B6003095D4330402F
:104944002D180D60A36A00209BB24B62F0BDC046D7
:10495400002800407F7F3F003FFFFF00CA23F7B5D8
:104964000E004E4C6362773B6362543BE360413319
:10497400E2681A42FCD077696368643F0A21380010
:104984000193FBF79FFB0A2105013800FBF7D6FBD7
:10499400019A0D43424BEDB213402D041D43656053
:1049A4003769636801370A2138000193FBF78AFBF2
:1049B4000A2105013800FBF7C1FB019A0D43394B6D
:1049C400EDB213402D021D436560F76863680A2148
:1049D40038000193FBF776FB0A2105013800FBF749
:1049E400ADFB3F23019A0D439A43EDB21543656035
:1049F400B76963680A2138000193FBF763FB0A2156
:104A040005013800FBF79AFB0D43019A264BEDB2E2
:104A1400013513406D031D436560B76823680A219F
:104A240038000193FBF74EFB0A2105013800FBF720
:104A340085FB019A0D431D4BEDB213402D041D431C
:104A44002560776823680A2138000193FBF73AFB55
:104A54000A2105013800FBF771FB019A0D43144B41
:104A6400EDB213402D021D43256037680A2138003A
:104A74002668FBF727FB0A2105013800FBF75EFBDC
:104A84007F230D439E43EDB2013B3543FF3B25603D
:104A9400E3608133FF3300206362FEBD00280040E1
:104AA400FFFF00FFFFE0FFFFFF1FFFFFFFFFC0FF4F
:104AB400FF80FFFF70B546681C4C200003F02CFB00
:104AC400002831D0A56820002B68F1689847021EA1
:104AD40002D00524644225E0802315495B00086860
:104AE40003430B60F168AB690831002BF1D020005F
:104AF4009847041EEDD180230E4A0F4D116A1B0204
:104B04000B4328003100136200F068F80028E0D15C
:104B1400CA236B62773B6B62AA68333B1343AB6077
:104B2400FF236B62200070BD1324D3E7BC8600080A
:104B34000070004000100240002800400C2270B5B4
:104B44000C4D6B681A40082A11D10F200A499A0C9F
:104B540002408C5CEA6ADB0307D508490240895CA1
:104B64000748FBF7AFFA604370BD0648FBE704480B
:104B7400FAE7C04600100240A4910008949100088E
:104B840000127A0000093D00FA2373B59B000193DB
:104B9400C368020000205B060ED401230121802596
:104BA4005B42D360D3680C4C9B090B406D02019EA1
:104BB400002E01D0012B00D176BD23682B4202D0F8
:104BC400019B013B0193D368019E9B090B40002E7E
:104BD400EDD10800EBE7C04610E000E0CA2370B551
:104BE4004362773B436204000D00FFF7CDFF0128C9
:104BF40016D04022A3680C4993432A68002013432B
:104C0400A3602369AA68DB0BDB03134323612269D6
:104C14006B680A401B041343236181235B42E360F6
:104C2400FF23636270BDC046FFFF80FF020010B522
:104C34000120002A11D0094B094993429B410A687B
:104C44005B4282431A430A600C681A000440A34280
:104C540001D00A6802405A40100010BD00366E01AF
:104C64000020024070B5041E12D0FFF713FE00238B
:104C7400084A050000212000FDF748F80023064AF1
:104C8400FBF796FB0400FFF705FE401BA042FAD396
:104C940070BDC046006CDC0240420F0070B50300DA
:104CA400EFF3108572B603F0A1FC074A14581800FC
:104CB40003F043FA002D02D162B6BFF36F8F2000D8
:104CC400FDF74CFF70BDC04608000000F7B5012792
:104CD400124E830001309C5983000193019BF358C9
:104CE400A34200D8F7BD65682368002D13D0002BBC
:104CF4000BD028009847002807D0C2178018EB680B
:104D04005040FF2800DDFF201870EA6853783B43C9
:104D140053700834E2E79847FBE7C046548D000817
:104D240010B50124094B03201C70FFF7CFFF00F0DE
:104D3400EBFF0420FFF7CAFF00F0E2F8FDF718FCD0
:104D4400034A137BA343137310BDC04644080020D9
:104D5400E802002010B5034A03480021121A03F0A8
:104D6400EFF910BD6008002078020020C82211006D
:104D7400F0B5702741430F2504004743124801262C
:104D84000918002087B00395053565430F4B05903E
:104D9400029001900E48FF182D180E4B380004960F
:104DA400009500F075F804227B7B2C7493437B738D
:104DB400A419094B6402E418EF606C6007483100E1
:104DC40003F0F3FA07B0F0BD600A00207802002077
:104DD400040500205581000860080020000500201B
:104DE400F0B50020A3B0FFF771FF214B83F30888CF
:104DF4002049214B0A6A00251A40C0231B0413438F
:104E04000B6202F0A3FCFDF7F5FC02221B4E06AB7D
:104E1400FF329A81B3601E9503F07DF90120FFF7FC
:104E240055FF0220FFF752FF00F070FC144C154BA5
:104E34007461A02205930123134E14490493920034
:104E440033002000039502950195009500F020F8A9
:104E540004220700637B20009343637303F0DAF9B1
:104E64002800FFF783FF320039002000FDF780FDA2
:104E7400600A002000ED00E0FFFF00FF04050020B1
:104E8400E8020020B4910008254D0008280B0020FA
:104E9400F0B587B00593030058338365C365109B51
:104EA4000727037304230025437307320F9BBA4378
:104EB40083738B180E0085601900C5738561C56105
:104EC40004000493FDF77CFD049BC019B8431F1A2A
:104ED4000E9B3A0002930D9B310001930C9B200022
:104EE4000093059BFDF72EFD044B65659B68AB4263
:104EF40000D01B6E3800236607B0F0BD0405002007
:104F040070B5204C86B026001F4DAC4208D300F08B
:104F1400D7FB3400AC4219D300F0E2FB06B070BDFD
:104F2400A36A0593236A0493E3690393A369029331
:104F34006369019323690093E368A2686168206848
:104F4400FFF7A6FF23685C652C34DDE7636A5A1C0F
:104F54000FD0D843C01718400A220023C117FCF70A
:104F6400D5FE26680B000200014304D1300000F096
:104F740061FB2C34CEE730000449183000F030FDDA
:104F8400F7E7C046F8880008F88800088D82000812
:104F9400F0B50F00010085B0083104000391EFF370
:104FA400108672B6006AE16888422CD2200003F0B1
:104FB40086F9A268051E0FD000243900406903F069
:104FC40022FA2800EC6603F025F90398310000F07A
:104FD4001BFB200005B0F0BD3900E06903F013FAB3
:104FE400E369A2689B186269E361934201D1236972
:104FF400E3610020236A01332362002EEAD162B602
:10500400BFF36F8FE6E7110019430AD006490398EE
:1050140089684F61009231002200019300F096FAF2
:10502400D8E723204042E8E704050020F7B5040050
:10503400270008000837EFF3108672B6216A0029AA
:1050440030D0A268A16903F0DEF9A369A2689B18B5
:105054006269A361934201D12369A361236A200099
:10506400013B236203F02BF9051E2BD0A268E069F3
:10507400696903F0C8F9E369A2689B186269E3618E
:10508400934201D12369E361236A28000133236237
:105094000024EC6603F0BEF83800310000F0B4FAE6
:1050A4002000FEBD110019430AD0094989684861EE
:1050B4000092310022003800019300F047FAF0E733
:1050C40023204042002EECD162B6BFF36F8FE8E795
:1050D40004050020F0B585B004001F000392EFF32F
:1050E400108672B6C368354A002B0ED0806891686A
:1050F400884217D0039B3B431AD1002E02D162B6DB
:10510400BFF36F8F102040420AE09168897B49B257
:105114000133E36093682161A360002E04D0002072
:1051240005B0F0BD2169F3E762B6BFF36F8FF6E710
:105134000E23897BC35649B2994200DD19000A0047
:105144007F3201DA7F21494200258B4202DD03F0E0
:1051540006F805001A4B22000293039B31000298C3
:105164000093019700F0F2F90028D8D0EFF31086ED
:1051740072B6A068002819D0236821699C420BD01C
:10518400002B09D09B7B5BB2994200DD19000B0018
:105194007F3301DA7F21494202F0E1FF002805D084
:1051A4003100029800F030FA0B20ACE7002DF7D163
:1051B400002EF9D162B6BFF36F8FF5E70405002026
:1051C4004508002070B583680400002B2AD0184AD3
:1051D4009268934229D1C368012B03D9013BC36070
:1051E400002070BDEFF3108572B60169806802F08B
:1051F400B6FF200003F063F8A06000280BD00E2354
:10520400C35623610023C36603F004F82900094848
:1052140000F0FAF9E4E7E060002DE1D162B6BFF3F3
:105224006F8FDDE716204042DBE70120FBE7C04635
:10523400040500204508002070B50400EFF3108534
:1052440072B603F03CF8002808D00023C36602F0CD
:10525400E1FF2900084800F0D7F970BDA268E368AF
:105264009B1A591E8B419B18A360002DF5D162B681
:10527400BFF36F8FF1E7C0464508002013B5040063
:10528400EFF3108172B68068002808D00138A0605E
:10529400002902D162B6BFF36F8F002016BD100043
:1052A400184307D1002902D162B6BFF36F8F1020D3
:1052B4004042F3E7009201932200024800F046F9CD
:1052C400ECE7C04645080020C289030000207F2A7D
:1052D40011D80A4A106800280DD00E21084A5956E0
:1052E40012680020914206DB5A7BD20603D105489E
:1052F400181A431E98410123184070472C050020BA
:1053040028050020780200200121044B044AC01A19
:10531400044BC0104343D1547047C0465803002087
:1053240045080020ABAAAAAA70B518240C4B0500A6
:105334001E7C0C4B7443E418200003F002F8002296
:10534400094B28009A55FFF7BFFF002807D0074BE9
:1053540020001A680649013AD31700F041FB70BDDA
:105364000405002058030020450800202C050020D7
:105374000D53000870B50E4D0E4BAC699C4201D024
:10538400002C00D1EC68AB68002808D15A7BD20607
:1053940005D1A269002A02D1DA897F2A05D89C4264
:1053A40002D02000FFF7C0FF23006B6170BDC04630
:1053B400040500201C0500200D2270B5825604004F
:1053C400437B002A04DA7F221340437302F0E6FE93
:1053D4008023627B5B421343134A637393691348CC
:1053E400834200D10023D169002B04D12060616085
:1053F4000C60D4610CE00E250E2665579E57B5420D
:105404000DD0AE420BDD5968236061600C605C60B6
:105414009068001B43425841FFF7ACFF70BD9942AE
:10542400E4D01B68E0E7C046040500201C0500200A
:105434000D2370B5C356417B002B26DBCB0624D14C
:105444008369002B21D1802252420A434273114ABC
:10545400114C9169A14200D00B00D169002B04D1F9
:10546400046041600860D0610CE00E250E264557AB
:105474009E57B5420AD0AE4208DD5A6803604260C6
:10548400106058600020FFF775FF70BD8B42E7D0B5
:105494001B68E3E7040500201C0500200D2210B55D
:1054A40082560400437B002A04DA7F2213404373AC
:1054B40002F074FE034B9868001B43425841FFF707
:1054C40059FF10BD0405002070B51D00160004002E
:1054D40002F077FE2B00721C01D1013306D02000AC
:1054E40032002B000249183000F07AFA70BDC04631
:1054F4008D82000870B5EFF3108572B6104A114B17
:1055040094681868A04207D1FFF70EFF002D02D15E
:1055140062B6BFF36F8F70BD00211960127C0A4B15
:105524009B5C8B42F2D02000FFF7CEFE0028EDD02A
:10553400637BDB0602D12000FFF73EFF2000E3E798
:1055440004050020240500204508002010B5094862
:105554000C00094B110082681A60EFF3108372B6D5
:10556400029A039B8068FFF7AFFF2000FDF788F9DC
:1055740010BDC0460405002024050020F8B5040031
:10558400EFF3108772B6437B4EB2DA061BD18569FE
:10559400002D18D17F221340437302F0FFFD8023B6
:1055A400627B5B4213436373154BA6739A69154977
:1055B4008A4200D01500DA69002D0CD121606260A6
:1055C4001460DC6112E00020A673002F02D162B6E1
:1055D400BFF36F8FF8BD0E20285686420BD0B04221
:1055E40009DD6B68256063601C606C600120FFF757
:1055F400C1FE0120E9E7AA42E0D02D68DCE7C046FD
:10560400040500201C05002010B500290AD1EFF381
:105614000580002807D1064B9A685B699A4202D03C
:10562400FDF72EF910BD62B6BFF36F8FFAE7C046DF
:105634000405002010B5EFF3108472B60422437BF6
:10564400134205D1002C02D162B6BFF36F8F10BD97
:1056540093434373FFF7ECFE21000248FFF7D4FFA6
:10566400F5E7C0464608002070B50400183002F083
:1056740068FEEFF3108672B60D22A256637B002AF1
:1056840005DA7F2213402000637302F087FD1023A4
:105694000A4D627BA8681343001B6373434258415D
:1056A400FFF768FE002E02D162B6BFF36F8FAB68BE
:1056B400A34201D102F02AFE70BDC04604050020B9
:1056C400EFF3108172B6054B9A68D37B013BD37319
:1056D400002902D162B6BFF36F8F70470405002022
:1056E40010B5EFF3108472B6074B00209A68D37B91
:1056F4000133D373FFF73EFE002C02D162B6BFF331
:105704006F8F02F003FE10BD04050020024B034A14
:105714009A61DA617047C046040500201C05002028
:10572400F8B5EFF3108572B67F22194CA068437B5D
:105734001340437302F032FD8022A3685242597B26
:1057440014480A435A73A269824200D10022E169D3
:10575400002A04D1186059600B60E3610CE00E2646
:105764000E279E57D757BE420DD0B7420BDD516866
:105774001A6059600B6053600120FFF7FBFD28009D
:10578400FDF77EF8F8BD8A42E4D01268E0E7C0462F
:10579400040500201C0500200300F7B50B4304009A
:1057A4000D00002B03D1FFF7BBFF0020FEBD4B1CF7
:1057B4002EDB4B1C01D1831C2AD302F0D5FD271804
:1057C400EFF3108372B6144E0193B068134B186054
:1057D400FFF764FEB06822002B001149183000F076
:1057E400FFF81023B2680198517B0B435373FDF704
:1057F40047F802F0B9FD00233A0004001D00121B13
:10580400AB41AB4202DCD0D1AA42CED01000CDE7EE
:1058140002277F423F1BD3E7040500202405002014
:105824008D82000810B50B000C00421C07D1013317
:1058340005D1074B9868FFF717FF200010BD210022
:10584400FFF7AAFF0A220023C117FAF7B1FDF5E713
:1058540004050020014B98687047C04604050020E9
:1058640070B50400EFF3108672B6037BDB0708D52E
:10587400002E02D162B6BFF36F8F042062B602DF3E
:1058840070BD0823427B1A4205D0002EF8D162B6BF
:10589400BFF36F8FF4E72021100088430100194300
:1058A40048B2002820DB6173A368002B02D02000DB
:1058B40002F07CFC2000183002F043FD2300A56DAB
:1058C40058339D4201D0002D16D10120FFF752FD1F
:1058D400104B9B68A342D8D1EFF30583002BD4D19E
:1058E4003000FCF7CDFFD0E75F210A4013432000CE
:1058F400637302F053FCD7E7280002F057FC28003A
:10590400183002F01EFD00232800EB66FFF790FD1F
:10591400D4E7C0460405002010B50648064A0749E6
:10592400121A02F011FC064A0649074802F00CFC60
:1059340010BDC0460000002074020020D892000868
:1059440000000000D892000800000020002010B5DC
:10595400034B1B68834201D1FEF782FF10BDC04692
:105964003005002070B50E4B1E689E4203D1FFF730
:10597400EDFF0C4870BDFFF7E9FF002EF9D0326946
:1059840073690400C517121BAB41002BF1DC03D172
:10599400802109068A42ECD2D843C0171040E9E7B7
:1059A400F0010020FFFFFF7F30B500280ED00B4B25
:1059B4005B6898420AD00168002907D00A694B69DC
:1059C4000469456912196B410A614B6103684268B5
:1059D40013605A6000230360436030BDF00100206F
:1059E400F7B5040016001F00531C01D17B1C57D0CF
:1059F400A160EFF3108372B60193002F23DA7B1CAE
:105A040001D1B31C1FD82B4B18685968022252428B
:105A1400D317121A8B41921BBB41002B04DC01D11A
:105A2400002A01D101220023234F226163613D68D2
:105A3400BD4200D100257E68002D0FD1276066602D
:105A440034607C601CE0FFF781FF0122002392197F
:105A54007B410600C71792197B41E5E7286969690C
:105A640022696369994202DC1BD1904219D9801AD8
:105A740099416B6828616961636025601C606C6092
:105A84003B68BB4206D09C4204D1FFF76BFF002168
:105A9400FEF76EFE019B002B02D162B6BFF36F8F3F
:105AA400F7BD121A8B4122616361B542C6D02D68DD
:105AB400C2E7C04670030020F0010020F0B585B0B5
:105AC400EFF3108372B60293304B1860304B1C68AE
